:020000040800F2
:1000000000000220B9020008D15B0008D55B00089F
:10001000D95B0008DD5B0008E15B00080000000020
:10002000000000000000000000000000E55B000888
:10003000E95B000800000000ED5B0008F15B0008D0
:10004000E9030008E9030008E9030008E9030008E0
:10005000E9030008E9030008A55B0008E9030008BC
:10006000E9030008E9030008E9030008B15B0008A0
:10007000E9030008E9030008E9030008E9030008B0
:10008000C15B0008E9030008E9030008E903000870
:10009000E9030008E9030008E9030008E903000890
:1000A000E9030008E9030008E9030008E903000880
:1000B000E9030008E9030008E9030008E903000870
:1000C000E9030008E9030008E9030008E903000860
:1000D000E9030008E9030008E9030008E903000850
:1000E000E9030008E9030008E9030008E903000840
:1000F000E9030008E9030008E9030008E903000830
:10010000E9030008E9030008E9030008E90300081F
:10011000E9030008E90300084D2E0008E903000880
:10012000E9030008E9030008E9030008E9030008FF
:10013000E9030008E9030008E9030008E9030008EF
:10014000E9030008E9030008E9030008E9030008DF
:10015000E9030008E9030008E9030008E9030008CF
:10016000E9030008E9030008E9030008E9030008BF
:10017000E9030008E9030008E903000800000000A3
:10018000E9030008E903000800B583B003F0E6F9CD
:10019000384B394A1360394A136039490CE00A6810
:1001A0004B6801F10C04886803E01168196004339E
:1001B00004329842F9D82146324B9942EFD32E4B64
:1001C0001A68314B9A4204D12C4B1A682F4B9A4231
:1001D00000D0FEE7274B2E4A13602E4A13602E4BA9
:1001E0000AE0194651F8082B5B6802E00020106015
:1001F00004329A42FAD30B46284A9342F1D3244B55
:100200001B6813B9234B1B6803B1FEE704F06AFCBB
:10021000694601A802F0FEFE214C224B1C1BA410D3
:10022000002504E01E4B53F8253098470135AC42B9
:10023000F8DC1D4C1D4B1C1BA410002504E01A4BC0
:1002400053F8253098470135AC42F8DC0099019805
:1002500005F068FA0546164C164B1C1BA41004E06A
:10026000013C134B53F824309847002CF8DC284607
:1002700002F06CFEBABADECA00000020E0020020E4
:10028000EC030008040400087856341232547698BF
:10029000E402002078170120040400081404000878
:1002A00014040008140400081404000814040008CE
:1002B000140400081404000808B5FFF765FF00BF28
:1002C00000BEFEE71EF0040F0CBFEFF30880EFF353
:1002D00009807146414A10472DE9F04182B0044639
:1002E0008846134B5E6B9F6B9D6A1B6B13F0020F6E
:1002F0000DD00F4BDB6A002B09DA4BF6AB6103F034
:10030000B3F920B14FF00042094BDA620CE0094822
:1003100003F0C0F8CDF800803B463246294620461F
:1003200003F02AF900BEFEE702B0BDE8F08100BF8D
:1003300000ED00E008C7000800BEFEE71EF0040F55
:100340000CBFEFF30880EFF309807146244A104791
:100350002DE9F04182B004468846084B5E6B9F6BE6
:100360009D6A074803F096F8CDF800803B46324678
:100370002946204603F000F900BEFEE700ED00E04C
:1003800018C700081EF0040F0CBFEFF30880EFF34E
:1003900009807146134A10472DE9F04182B00446A6
:1003A0008846084B5E6B9F6B9D6A074803F072F8A6
:1003B000CDF800803B4632462946204603F0DCF863
:1003C00000BEFEE700ED00E024C7000800BEFEE727
:1003D00000BEFEE700BEFEE770470000D90200083D
:0C03E000510300089903000800BEFEE76E
:1003EC0034D6000800000020E402002034D60008B7
:1003FC000000001000000010E40200207C17012017
:08040C000000001000000010C8
:1004200000B589B000210191114B5A6C42F4805201
:100430005A645A6C02F480520192019A02911A6B2A
:1004400042F001021A631B6B03F001030293029B4B
:10045000E0230393022304930593012306930523CA
:10046000079303A9034800F08DFC09B05DF804FB75
:10047000003802400000024010B50F4802F076FA42
:10048000C8B90D4C0D4B23601823E3610023A36012
:1004900063612361A3620722E262E36023624FF497
:1004A0000072A26163624FF482736360FFF7B8FF6A
:1004B000204601F0E7FF10BDE802002000300140B7
:1004C00008B5034802F0A0F8FFF7D6FF08BD00BF4B
:1004D000E802002000B587B08DF80F0006AA0023BF
:1004E00002F8013D084B1B68009301230DF10F0139
:1004F000064802F065F908B1FFF7E2FF9DF8170022
:1005000007B05DF804FB00BF04000020E8020020F3
:1005100008B50121024B53F8200000F0CBFD08BDC7
:100520000800002070B586B0002100910E4B1A6BB8
:1005300042F010021A631B6B03F010030093009B40
:10054000082601960124029403910494074D01A901
:10055000284600F017FC22463146284600F0BCFD34
:10056000FFF78AFF06B070BD00380240001002405D
:1005700010B586B0002400940E4B1A6B42F01002A6
:100580001A631B6B03F010030093009B022301937B
:10059000094A02920493039401A9084800F0F2FB6F
:1005A00022460F21072000F0E3F8072000F022F98F
:1005B00006B010BD003802400000111000100240CB
:1005C00070B505460E461446012A01D941F0400691
:1005D000002208210A4800F07FFD3046FFF77AFF2D
:1005E00005E015F8010BFFF775FF013CA4B2002CE4
:1005F000F7D101220821024800F06EFD70BD00BF56
:100600000010024070B505461446012A02D941F097
:10061000C00601E041F08006002208210A4800F0EF
:100620005BFD3046FFF756FF06E00020FFF752FF64
:1006300005F8010B013CA4B2002CF6D101220821DF
:10064000014800F049FD70BD0010024010B5104B8C
:100650009B6898473B280BD10E4C0D4B23601B68C1
:100660004720984723689B6A2D209847002010BD9B
:10067000094B9B6898473F2807D1074B054A1360F1
:100680001B6867209847002010BD012010BD00BFE7
:10069000780000204003002044000020094B1B6824
:1006A0001B6B73B110B504469847064B1A68064B8E
:1006B0009A4205D1B4F90030628822805B4263809F
:1006C00010BD70474003002078000020704700BF35
:1006D00008B5094B1A6842F400721A601A6842F4AD
:1006E00080621A60032000F025F80F2002F05CFB06
:1006F000FFF7ECFF002008BD003C0240024A1368EF
:1007000001331360704700BF2C050020014B1868AF
:10071000704700BF2C05002010B582B00190FFF794
:10072000F5FF0446FFF7F2FF001B019B9842F9D347
:1007300002B010BD10B50446C31E042B03D9A4217A
:10074000094802F09DFE094AD36823F4E0631B04C4
:100750001B0C240204F4E064234343F0BF6343F41E
:100760000033D36010BD00BF90C3000800ED00E06F
:1007700070B505460E4614460F2A03D9BC211A4807
:1007800002F07EFE0F2E03D9BD21174802F078FE3D
:10079000164BDB68C3F30223C3F10701042928BF0A
:1007A00004211A1D062A01D9033B00E0002301227F
:1007B00002FA01F101393140994002FA03F3013B99
:1007C0001C400C43002D06DA05F00F052401E4B2AD
:1007D000074B5C5570BD2401E4B205F1604505F599
:1007E000614585F8004370BD90C3000800ED00E04E
:1007F00014ED00E010B5041E03DAD021064802F023
:100800003FFE620904F01F04012303FA04F4034BC2
:1008100043F8224010BD00BF90C3000800E100E093
:10082000704700BF08B5FFF7FBFF08BD30B405688F
:100830002C6824F480242C60046863608368402B57
:1008400004D103689A600368D96003E00368996083
:100850000368DA6030BC70470268D3B2103B0B49C2
:10086000A1FB03131B090A49C95C4165032B06D987
:1008700022F47F7222F003020432026504E022F4C3
:100880007F7222F003020265006D7047ABAAAAAA2C
:10089000C4C30008002800F0048110B504460368B2
:1008A000814A934231D0183293422ED0183293426B
:1008B0002BD01832934228D01832934225D01832C8
:1008C000934222D0183293421FD0183293421CD048
:1008D00002F55672934218D01832934215D018324E
:1008E000934212D0183293420FD0183293420CD058
:1008F0001832934209D01832934206D018329342EC
:1009000003D0C521694802F0BBFD6368C3B1B3F1F0
:10091000007F15D0B3F1806F12D0B3F1C06F0FD04C
:10092000B3F1006F0CD0B3F1206F09D0B3F1406F79
:1009300006D0B3F1606F03D0C6215C4802F0A0FD81
:10094000A3683BB1402B05D0802B03D0C72157486B
:1009500002F096FDE368B3F5007F04D01BB1C82117
:10096000524802F08DFD2369B3F5806F04D01BB1AE
:10097000C9214E4802F084FD63694BB1B3F5006FA5
:1009800006D0B3F5805F03D0CA21484802F078FD55
:10099000A3694BB1B3F5005F06D0B3F5804F03D028
:1009A000CB21424802F06CFDE36943B1B3F5807F8F
:1009B00005D0202B03D0CC213C4802F061FD236AF6
:1009C00063B1B3F5803F09D0B3F5003F06D0B3F56E
:1009D000403F03D0CD21354802F052FD636A2BB170
:1009E000042B03D0CE21314802F04AFD636A23B3C1
:1009F000A36A032B03D9D3212C4802F041FDE36AFB
:100A000063B1B3F5000F09D0B3F1807F06D0B3F125
:100A1000C07F03D0D421254802F032FD236B63B19F
:100A2000B3F5001F09D0B3F5800F06D0B3F5C00FA2
:100A300003D0D5211D4802F023FD022384F8353070
:100A4000206803681A4919406268A3681A43E3687A
:100A50001A4323691A4363691A43A3691A43E36972
:100A60001343226A1A4341EA0203626A042A03D149
:100A7000E16A226B0A43134303602268536923F03F
:100A80000703616A0B43042901D1A16A0B43536137
:100A90002046FFF7E1FE0020E064012384F83530B2
:100AA00010BD0120704700BF10600240CCC3000899
:100AB0003F8010F030B338B5044690F83530DBB2E3
:100AC000022B21D00268136823F00103136003682E
:100AD00000251D6003685D6003689D600368DD603C
:100AE00003681D61036821225A61FFF7B5FE626D3C
:100AF0003F2393408360E56484F8355084F8345094
:100B0000284638BD01207047012038BDF8B590F85F
:100B10003440012C2FD01D4616460F4604460123B3
:100B200080F83430022380F835306A1E4FF6FE73A9
:100B30009A4204D940F29911104802F0A1FC2068B1
:100B4000036823F0010303602B46324639462046F2
:100B5000FFF76CFE2268136843F01E0313602268DF
:100B6000536943F0800353612268136843F0010323
:100B700013600020F8BD0220F8BD00BFCCC3000800
:100B800038B504460268136823F001031360FFF7C9
:100B9000BDFD054610E0FFF7B9FD401BB0F57A7FBB
:100BA0000AD9E36C43F02003E364002384F8343073
:100BB000032084F8350038BD23681B6813F0010F4B
:100BC000E9D1002084F83400012384F8353038BDA1
:100BD00038B50446056D2A68416D08238B401A42DA
:100BE00019D003681A6812F0040F14D01A6822F0A2
:100BF00004021A60426D08239340AB60C36C43F05B
:100C00000103C364042380F83530002380F83430B6
:100C1000836C03B198472A68616D584B8B401A4228
:100C20001AD023685A6912F0800F15D05A6922F041
:100C300080025A61626D514B9340AB60E36C43F0AC
:100C40000203E364042384F83530002384F834304D
:100C5000A36C0BB1204698472A68616D484B8B40C6
:100C60001A421AD023681A6812F0020F15D01A68B7
:100C700022F002021A60626D414B9340AB60E36C5C
:100C800043F00403E364042384F83530002384F83C
:100C90003430A36C0BB1204698472A68616D10234D
:100CA0008B401A422DD02268116811F0080F28D00D
:100CB000116811F4802F11D0AB6023681A6812F408
:100CC000002F03D1312384F8353016E01B6813F46C
:100CD000002F12D0412384F835300EE0136813F44E
:100CE000807F03D1136823F008031360626D102323
:100CF0009340AB60312384F83530236C0BB1204630
:100D000098472A68616D20238B401A4234D02268AC
:100D1000116811F0100F2FD0116811F4802F13D02B
:100D2000AB6023681A6812F4002F04D1636C1BB304
:100D30002046984738BD1B6813F4002F1CD0E36B86
:100D4000D3B12046984738BD136813F4807F03D190
:100D5000136823F010031360626D20239340AB608F
:100D6000E36CE364112384F83530002384F83430D5
:100D7000E36B0BB12046984738BD00BF01008000EF
:100D8000040080002DE9F04782B080460F46A44B56
:100D9000984223D003F5806398421FD003F5806307
:100DA00098421BD003F58063984217D003F5806307
:100DB000984213D003F5806398420FD003F5806307
:100DC00098420BD003F58063984207D003F5806307
:100DD000984203D0C521934802F052FB3B881BB9CF
:100DE000C621904802F04CFB7B68012B22D9112BC5
:100DF00020D0022B1ED0122B1CD08B4A934219D02C
:100E000002F58012934215D002F58012934211D060
:100E1000A2F5F81293420DD002F58012934209D048
:100E200002F58012934205D0032B03D0C7217D48E1
:100E300002F026FBBB68022B03D9C821794802F0D7
:100E40001FFB00252CE10124AC403E682640B44243
:100E500040F025817B68022B01D0122B4AD13B69DF
:100E6000C3B3092B36D0ABB3A3B39BB393B3012B5E
:100E700030D02FD0022B2DD02CD02BD0032B29D02B
:100E8000042B27D026D025D0052B23D022D0092B08
:100E900020D0062B1ED0092B1CD0072B1AD019D01E
:100EA00018D0082B16D015D014D0092B12D011D081
:100EB0000A2B0FD00ED00B2B0CD00C2B0AD009D044
:100EC0000D2B07D00C2B05D00F2B03D0D921554863
:100ED00002F0D6FAEA08083258F8220005F00703B3
:100EE00099000F238B4020EA03003B698B400343AA
:100EF00048F82230D8F800304FEA450A4FF003098D
:100F000009FA0AF96FEA090903EA09027B6803F0A2
:100F1000030303FA0AF31343C8F800307B685A1E30
:100F2000012A03D9112B01D0122B1BD1FB68032BF3
:100F300003D9EC213B4802F0A3FAD8F8083009EABB
:100F40000302FB6803FA0AF31343C8F80830D8F821
:100F5000043023EA04047B68C3F30013AB401C4352
:100F6000C8F80440D8F80C3009EA0309BB6803FA52
:100F70000AF349EA0303C8F80C307B6813F0805F7A
:100F800000F08D8000230193284B5A6C42F480427C
:100F90005A645B6C03F480430193019BA9088A1C8B
:100FA000234B53F8220005F003039B000F229A40C5
:100FB00020EA02001A4A904521D002F5806290454D
:100FC0001FD002F5806290451DD002F580629045E9
:100FD0001BD002F58062904519D002F580629045E1
:100FE00017D002F58062904515D002F580629045D9
:100FF00013D002F5806290451CD108221BE000222C
:1010000019E0012217E0022215E0032213E0042276
:1010100011E005220FE006220DE007220BE000BFE1
:1010200000000240FCC3000800001110003802401C
:1010300000380140092202FA03F3034302311B4A3C
:1010400042F821301A4B1A68F34302EA0301786828
:1010500010F4803F01D046EA0201154A116052683F
:1010600003EA0201786810F4003F01D046EA020169
:101070000F4A5160926803EA0201786810F4801FF9
:1010800001D046EA02010A4A9160D26813407968A9
:1010900011F4001F01D046EA0203054AD36001356E
:1010A0000F2D7FF6D0AE02B0BDE8F08700380140CA
:1010B000003C014038B505460C4621B94FF4C871D3
:1010C000044802F0DDF92B691C4201D0012038BD33
:1010D000002038BDFCC3000870B5064615460C4616
:1010E00021B940F2B111084802F0CAF9012D04D922
:1010F0004FF4D971044802F0C3F90DB1B46170BD69
:101100002404B46170BD00BFFCC3000808B5044BE3
:101110005B69034203D0024B586104F051FE08BDE5
:10112000003C0140704700BF704700BF08B5806BAE
:10113000FFF7FAFF08BD00BF704700BF08B5806B1E
:1011400005F048FA08BD00BF08B5806B0023438551
:101150004386012380F83D30036C43F02003036491
:1011600005F044FA08BD00BF90F83D00704700BF8D
:1011700008B5836B0268126812F4807F3CD11A6A4A
:10118000012A05D019684A6822F002024A6022E06A
:101190001A68D16901F44071B1F5007F03D0D169BB
:1011A00011F4407F04D1516821F00201516012E036
:1011B00013498A4202D1A1F5806101E04FF040213C
:1011C0000F48824201D10F4A01E04FF0402252689D
:1011D00022F002024A6000225A8593F83D20D2B2E2
:1011E000322A06D15A8E92B232B9012283F83D20BA
:1011F00002E0012283F83D201846FFF79DFF08BD5D
:10120000003800400034004008B5836B0268126863
:1012100012F4807F3BD11A6A012A05D019684A6806
:1012200022F001024A6021E01A68D16901F440719C
:10123000B1F5007F03D0D16911F4407F12D1164976
:101240008A4201D1154801E04FF0402012498A42FC
:1012500001D1124A01E04FF04022526822F001020F
:10126000426003E0516821F00101516000225A867A
:1012700093F83D20D2B2322A06D15A8D92B232B9B9
:10128000012283F83D2002E0012283F83D20184628
:1012900005F096F908BD00BF00380040003400405A
:1012A000002900F0F88070B582B00D46002A00F0E9
:1012B000F480002B00F0F38090F83D40E4B2012C64
:1012C00040F0EF804162C2620168C96901F0070124
:1012D000032901D0052906D15B009BB20385438514
:1012E0000386438603E0038543850386438690F89F
:1012F0003C30DBB2012B00F0D680164604460123B9
:1013000080F83C30322380F83D3000230364836B47
:10131000664A1A64836B664ADA63826B654B936430
:10132000426B65491164426B6449D163426B9364BB
:101330000268D36903F44073B3F5007F01D0002B3A
:101340004CD1A06B5E4B9A4201D15E4901E04FF057
:101350004021238E9BB232460C31FFF7D7FB236826
:10136000574A934202D1A2F5806201E04FF0402239
:1013700053498B4201D1534B01E04FF040235B684E
:1013800043F0010353602268238D9BB20C3229463F
:10139000606BFFF7BBFB2268536843F002035360A6
:1013A0002368DA6912F4806F71D1454A934202D101
:1013B000A2F5806201E04FF0402241498B4201D109
:1013C000404B01E04FF04023DB6943F48063D3617D
:1013D0002268D36943F48063D36158E0406B384B93
:1013E0009A4201D1374A01E04FF04022238D9BB24F
:1013F0000C322946FFF78AFB2368314A934202D117
:10140000A2F5806201E04FF040222D498B4201D1CC
:101410002C4B01E04FF040235B6843F00203536024
:101420002168238E9BB232460C31A06BFFF76EFB16
:101430002268536843F0010353602368DA6912F4A9
:10144000806F17D1DA6942F48062DA6123681C4A3E
:10145000934201D11B4901E04FF04021184A9342C9
:1014600001D1184B01E04FF04023DB6943F4806366
:10147000CB610CE0DA6902F44072B2F5407F06D12C
:1014800000220192DA6801929B680193019B00207F
:1014900084F83C0008E001207047012004E00120AE
:1014A00002E0022000E0022002B070BD3D11000801
:1014B00009120008491100082D11000871110008D7
:1014C000003800400034004090F83C30DBB2012B83
:1014D00059D0012380F83C3090F83D30DBB2122B1C
:1014E00005D10268536823F00203536046E090F888
:1014F0003D30DBB2222B05D10268536823F0010393
:1015000053603BE090F83D30DBB2322B36D143687C
:1015100013B1B3F5007F19D10268536823F00203B9
:1015200053600368194A934202D1A2F5806201E038
:101530004FF0402215498B4201D1154B01E04FF08D
:1015400040235B6823F00103536017E0026853688F
:1015500023F00103536003680C4A934201D10C4904
:1015600001E04FF04021094A934201D1084B01E0CC
:101570004FF040235B6823F002034B60002380F8A8
:101580003C30184670470220704700BF00380040CA
:101590000034004090F83C30DBB2012B62D00123D4
:1015A00080F83C3090F83D30DBB2122B05D1026858
:1015B000536843F00203536046E090F83D30DBB2DD
:1015C000222B05D10268536843F0010353603BE0CE
:1015D00090F83D30DBB2322B36D1436813B1B3F50E
:1015E000007F19D10268536843F002035360036817
:1015F0001D4A934202D1A2F5806201E04FF04022E1
:1016000019498B4201D1194B01E04FF040235B682F
:1016100043F00103536017E00268536843F001038D
:1016200053600368104A934201D1104901E04FF022
:1016300040210D4A934201D10C4B01E04FF0402371
:101640005B6843F002034B600368DA6912F4806F51
:1016500003D1DA6942F48062DA61002380F83C3019
:1016600018467047022070470038004000340040A0
:1016700090F83C30DBB2012B64D010B5012380F828
:101680003C300268536823F00203536002685368D9
:1016900023F001035360036A012B27D103682A4A10
:1016A000934202D1A2F5806201E04FF04022264928
:1016B0008B4201D1254B01E04FF040235B6823F0C2
:1016C000020353600368204A934202D1A2F580626C
:1016D00001E04FF040221C498B4201D11B4B01E03D
:1016E0004FF040235B6823F0010353600446406BD6
:1016F00008B1FFF745FAA06B08B1FFF741FA22687D
:10170000D36923F48063D361236A012B13D1236847
:101710000D4A934202D1A2F5806201E04FF04022CF
:1017200009498B4201D1094B01E04FF04023DB69AD
:1017300023F48063D361012384F83D30002084F8D2
:101740003C0010BD022070470038004000340040CB
:10175000C369012B04D10122124B1A601248704751
:10176000124B5B6813F4800F07D0104B586800F0E1
:101770003F000F4BB3FBF0F006E00C4B586800F055
:101780003F000C4BB3FBF0F0084AD2F88430C3F3AF
:10179000881303FB00F3D2F88400C0F30270B3FB9C
:1017A000F0F070475C0147420080BB000038024007
:1017B00000127A000024F400002800F00D8170B5BA
:1017C0000446436863B1B3F5807F09D0B3F5007F69
:1017D00006D0B3F5407F03D0C421804801F050FE0D
:1017E000A3685BB1102B09D0202B07D0302B05D07C
:1017F000B02B03D0C521794801F042FEE368012BEC
:1018000007D9032B05D0052B03D0C621734801F05F
:1018100037FE2369B3F5007F04D01BB1C7216F48A1
:1018200001F02EFE6369A3F5FA516D4A914205D984
:10183000022B03D0C821694801F022FEA3692BB115
:10184000082B03D0C921654801F01AFEE369012B7A
:1018500003D9CA21614801F013FE94F83D3013F01A
:10186000FF0F05D1002384F83C302046FFF75AFCD7
:10187000022284F83D202168CB6923F47B6323F0A6
:101880000F03CB6123681A622368DE6963699342A0
:1018900028D0E3680BB9012500E002252046FFF7B8
:1018A00057FF2369B3F5007F08D1000A00EB8000E1
:1018B00043006569B3FBF5F3053309E06D01B0FB47
:1018C000F5F000EB800043006569B3FBF5F30533E9
:1018D000444DA5FB0335ED0805F00103EA1A520853
:1018E000180202E0002528460222931EFD2B01D992
:1018F0000020022221682369034313430B626268BC
:10190000A3681A43E3681A43A3691343334343F4B8
:1019100000632268D361236A012B04D94FF49371C9
:101920002E4801F0ADFD236A012B4FD123682E4ACA
:10193000934201D12D4901E04FF040212A4A9342C0
:1019400001D12A4B01E04FF04023DB6923F47B6394
:1019500023F00F03CB612268234B9A4201D1234A23
:1019600001E04FF040220223136221681E4B99428E
:1019700002D1A3F5806301E04FF04023D86962688B
:10198000B2F5007F07D04AB1B2F5407F09D0B2F579
:10199000807F09D107E04FF4807505E04FF4807532
:1019A00002E0002500E00025A2681543E2682A4312
:1019B000A3691343034343F400630B4A914202D1EA
:1019C000A2F5806201E04FF04022D3610020206444
:1019D000012384F83D3070BD012070472CC40008FD
:1019E000C0CE0200CDCCCCCC00380040003400404A
:1019F00030B583B0044603680F2B03D9F6219E4807
:101A000001F03EFD236813F0010F45D06368012B00
:101A100005D9052B03D0FB21974801F031FD974BE9
:101A20009B6803F00C03042B0AD0944B9B6803F0D3
:101A30000C03082B0CD1914B5B6813F4800F07D07B
:101A40008E4B1B6813F4003F26D0636823BBD5E19F
:101A500022798B4B1A7063687BB1FEF757FE0546FF
:101A600005E0FEF753FE401B642800F2C981834B5A
:101A70001B6813F4003FF4D00EE0FEF747FE054666
:101A800005E0FEF743FE401B642800F2BB817B4B60
:101A90001B6813F4003FF4D1236813F0020F6ED0DB
:101AA000E368012B04D940F22D11734801F0E8FCE2
:101AB00023691F2B04D94FF497716F4801F0E0FCA4
:101AC0006E4B9B6813F00C0F0AD06C4B9B6803F0B5
:101AD0000C03082B1DD1694B5B6813F4800F18D1E0
:101AE000664B1B6813F0020F03D0E368012B40F034
:101AF0008B816248036823F0F8012269F82393FA86
:101B0000A3F3B3FA83F3DBB202FA03F30B430360EC
:101B100035E0E3680BB301225A4B1A60FEF7F6FD7D
:101B2000054605E0FEF7F2FD401B022800F26E813B
:101B3000524B1B6813F0020FF4D05048036823F097
:101B4000F8012269F82393FAA3F3B3FA83F3DBB223
:101B500002FA03F30B43036011E00022494B1A60C1
:101B6000FEF7D4FD054605E0FEF7D0FD401B022838
:101B700000F24E81414B1B6813F0020FF4D1236831
:101B800013F0080F2ED06369012B04D94FF4B771FD
:101B9000394801F075FC636993B101223A4B1A6030
:101BA000FEF7B4FD054605E0FEF7B0FD401B022838
:101BB00000F23081314B5B6F13F0020FF4D011E073
:101BC0000022314B1A60FEF7A1FD054605E0FEF745
:101BD0009DFD401B022800F21F81284B5B6F13F014
:101BE000020FF4D1236813F0040F60D0A368012B17
:101BF00006D9052B04D04FF4CC711F4801F040FCEE
:101C0000002301931D4B1A6C42F080521A641B6C26
:101C100003F080530193019B1C4A136843F48073C3
:101C20001360FEF773FD054605E0FEF76FFD401BF0
:101C3000022800F2F380154B1B6813F4807FF4D068
:101C4000227A134B1A70A3688BB1FEF75FFD05462D
:101C500007E0FEF75BFD401B41F28833984200F23B
:101C6000DF80064B1B6F13F0020FF2D01FE0FEF770
:101C70004DFD054616E000BF70C400080038024064
:101C80000238024000004742800E47420070004088
:101C900070380240FEF73AFD401B41F2883398420B
:101CA00000F2C080664B1B6F13F0020FF2D1A369E4
:101CB000022B04D940F2CD11624801F0E1FBA36987
:101CC000002B00F0B1805E4A926802F00C02082AF4
:101CD00000F0AC80022B7ED1E3693BB1B3F5800FFD
:101CE00004D04FF4EB71574801F0CAFB236A3F2B35
:101CF00004D940F2D711534801F0C2FB636A323B6A
:101D0000B3F5BF7F04D94FF4EC714E4801F0B8FB36
:101D1000A36A022B0AD0042B08D0062B06D0082B6E
:101D200004D040F2D911474801F0AAFBE36A043B12
:101D30000B2B04D94FF4ED71424801F0A1FB0022B6
:101D4000414B1A60FEF7E2FC054604E0FEF7DEFCBC
:101D5000401B02286CD83A4B1B6813F0007FF5D16A
:101D6000E169236A1943626A47F6C07393FAA3F3E1
:101D7000B3FA83F3DBB202FA03F31943A36A5B08F5
:101D80005A1E4FF4403393FAA3F3B3FA83F3DBB252
:101D900002FA03F30B43E16A4FF0706292FAA2F287
:101DA000B2FA82F2D2B201FA02F21343244A536029
:101DB0000122254B1A60FEF7A9FC044604E0FEF759
:101DC000A5FC001B022835D81D4B1B6813F0007FB3
:101DD000F5D0002031E000221B4B1A60FEF796FC84
:101DE000044604E0FEF792FC001B022824D8144BA2
:101DF0001B6813F0007FF5D100201EE001201CE0DD
:101E000003201AE0032018E0012016E0032014E06C
:101E1000032012E0032010E003200EE003200CE07A
:101E200003200AE0032008E0002006E0012004E08F
:101E3000032002E0032000E0032003B030BD00BF18
:101E40000038024070C400086000474270B5044684
:101E50000D460368013B0E2B04D94FF40E718348E5
:101E600001F00EFB072D04D940F239217F4801F023
:101E700007FB7F4B1B6803F00F039D4208D9EBB2B1
:101E80007B4A1370136803F00F039D4240F0DB8020
:101E9000236813F0020F1DD0A368A3B1802B12D0CA
:101EA000902B10D0A02B0ED0B02B0CD0C02B0AD072
:101EB000D02B08D0E02B06D0F02B04D04FF41471B7
:101EC0006A4801F0DDFA6B498B6823F0F002A368E1
:101ED00013438B60236813F0010F64D06368032BF6
:101EE00004D940F25721614801F0CAFA6268012A18
:101EF00005D1604B1B6813F4003F0FD1A5E0931E82
:101F0000012B05D85B4B1B6813F0007F06D19EE0C8
:101F1000584B1B6813F0020F00F09B8055498B68EB
:101F200023F0030313438B60FEF7F0FB0646636860
:101F3000012B0FD107E0FEF7E9FB801B41F288334C
:101F4000984200F288804B4B9B6803F00C03042BF3
:101F5000F1D128E0022B0ED106E0FEF7D7FB801B63
:101F600041F28833984278D8424B9B6803F00C03C7
:101F7000082BF2D117E0032B10D13E4B9B68FEF7E4
:101F8000C5FB801B41F288339842F6D967E0FEF723
:101F9000BDFB801B41F28833984262D8354B9B6869
:101FA00013F00C0FF3D1324B1B6803F00F039D426B
:101FB00007D2EAB22E4B1A701B6803F00F039D4242
:101FC00051D1236813F0040F19D0E36883B1B3F53E
:101FD000805F0DD0B3F5A05F0AD0B3F5C05F07D026
:101FE000B3F5E05F04D040F2B521204801F048FA93
:101FF00020498B6823F4E052E36813438B60236825
:1020000013F0080F1AD0236983B1B3F5805F0DD0A8
:10201000B3F5A05F0AD0B3F5C05F07D0B3F5E05FBA
:1020200004D04FF42F71114801F02AFA114A936835
:1020300023F46043216943EAC10393600F2000F059
:10204000B3FE002070BD012070BD012070BD0120D5
:1020500070BD012070BD032070BD032070BD032042
:1020600070BD032070BD012070BD00BF70C40008AA
:10207000003C024000380240264B9B6803F00C03F2
:10208000042B42D0082B01D02348704710B4214BB9
:10209000586800F03F005B6813F4800F11D01F4BAD
:1020A000B3FBF0F01B4B5A6847F6C0710A4091FA37
:1020B000A1F3B3FA83F3DBB222FA03F303FB00F3D9
:1020C00011E0154BB3FBF0F0124B5A6847F6C074A1
:1020D00002EA040194FAA4F2B2FA82F2D2B221FA2C
:1020E00002F202FB00F30B4A506800F440324FF456
:1020F000403090FAA0F0B0FA80F0C0B222FA00F0BE
:1021000001304000B3FBF0F001E0044870475DF897
:10211000044B7047003802400024F40000127A009B
:1021200008B5FFF7A9FF094B9B6803F0F002F02305
:1021300093FAA3F3B3FA83F3DBB222FA03F3044A6C
:10214000D35CD840034B186008BD00BF0038024084
:1021500060C400080C00002008B5FFF7E1FF084B41
:102160009B6803F4E0524FF4E05393FAA3F3B3FAFD
:1021700083F3DBB222FA03F3024AD35CD84008BDF2
:102180000038024060C400080F2303600B4B9A68BC
:1021900002F0030242609A6802F0F00282609A68DC
:1021A00002F4E052C2609B68DB0803F4E053036171
:1021B000034B1B6803F00F030B60704700380240AD
:1021C000003C024030B583B005460368013B062B56
:1021D00004D940F21661644801F052F92B6813F0FB
:1021E000010F4DD0AB68023B052B04D940F21C61B6
:1021F0005D4801F045F96B68323BB3F5BF7F04D908
:1022000040F21D61584801F03BF90022574B1A601B
:10221000FEF77CFA044605E0FEF778FA001B022878
:1022200000F29480524B1B6813F0006FF4D16A687F
:1022300047F6C07393FAA3F3B3FA83F3DBB202FA5F
:1022400003F1AA684FF0E04393FAA3F3B3FA83F3E0
:10225000DBB29A4041EA0203454AC2F884300122C7
:10226000424B1A60FEF752FA044604E0FEF74EFABB
:10227000001B02286CD83E4B1B6813F0006FF5D092
:102280002B6813F0020F65D000230193384B1A6CB2
:1022900042F080521A641B6C03F080530193019B3F
:1022A000344A136843F480731360FEF72FFA044630
:1022B00004E0FEF72BFA001B02284DD82D4B1B68BB
:1022C00013F4807FF5D02A4B1A6FEB68534013F458
:1022D000407F43D0264A136F23F4407026490124DF
:1022E0000C6000240C60106713F0020F0FD0FEF793
:1022F0000DFA044606E0FEF709FA001B41F28833A6
:1023000098422DD81A4B1B6F13F0020FF3D0EB68D5
:1023100003F44072B2F5407F0AD115498A6822F46D
:10232000F81223F0704323F4407313438B6004E0EE
:102330000F4A936823F4F81393600D4A116FEB680A
:10234000C3F30B030B43136700200AE0032008E0EC
:10235000032006E0002004E0032002E0002000E06B
:10236000032003B030BD00BFA0C40008680047428E
:102370000038024000700040400E474203230360D3
:102380001249D1F8842047F6C0731A4093FAA3F398
:10239000B3FA83F3DBB222FA03F34360D1F884305B
:1023A00003F0E0424FF0E04393FAA3F3B3FA83F370
:1023B000DBB222FA03F383608B6803F4F8120B6F2D
:1023C00003F440731343C360704700BF00380240FA
:1023D000F8B505460F4616461C4636E0B4F1FF3FF9
:1023E00033D02CB1FEF792F9069BC01A84422CD848
:1023F0002A68536823F0E00353606B68B3F5827F6B
:102400000BD1AB68B3F5004F02D0B3F5806F04D1A8
:102410002A68136823F040031360AB6AB3F5005FCA
:102420000BD12A68136823F400531B041B0C1360A0
:102430002A68136843F400531360012385F8513070
:10244000002385F850300320F8BD2B689B683B4083
:10245000B342C3D10020F8BD10B582B0044600924B
:102460000B4600228021FFF7B3FF034620B1636DC6
:1024700043F0200363650323184602B010BD00BF7C
:10248000704700BF002800F0B78010B5044603680D
:102490005A4A93420CD0A2F57842934208D002F5F2
:1024A0008062934204D04FF48671554800F0E8FFF3
:1024B00063683BB1B3F5827F04D040F20D11504800
:1024C00000F0DEFFA36853B1B3F5806F07D0B3F51A
:1024D000004F04D04FF48771494800F0D1FFE36802
:1024E000B3F5006F05D023B140F20F11444800F05E
:1024F000C7FFA369B3F5007F08D03BB1B3F5802FC8
:1025000004D04FF488713E4800F0BAFFE36993B1FC
:10251000082B10D0102B0ED0182B0CD0202B0AD04B
:10252000282B08D0302B06D0382B04D040F21111C4
:10253000334800F0A5FF236A33B1802B04D04FF459
:1025400089712F4800F09CFF636A33B1102B04D0CF
:1025500040F213112A4800F093FF636A83B923699C
:1025600033B1022B04D04FF48B71254800F088FF63
:102570006369012B04D940F21711214800F080FF54
:102580000023A36294F8513013F0FF0F05D100230C
:1025900084F850302046FFF773FF022384F851304F
:1025A0002268136823F04003136021686268A368FF
:1025B0001A43E3681A4323691A4363691A43A369F8
:1025C00003F400731343E2691343226A1343A26ABC
:1025D0001A430A602168638B03F00402636A1343A1
:1025E0004B602268D36923F40063D36100206065E7
:1025F000012384F8513010BD0120704700300140A4
:10260000D4C40008704700BF20B310B50446036867
:10261000114A93420CD0A2F57842934208D002F5B9
:102620008062934204D04FF4AF710C4800F028FF51
:10263000022384F851302268136823F040031360AA
:102640002046FFF7DFFF0020606584F8510084F822
:10265000500010BD0120704700300140D4C4000874
:102660002DE9F04182B004460E4617461D468368A8
:102670003BB1B3F5004F04D04FF4E2714F4800F086
:10268000FFFE94F85030012B00F09480012384F871
:102690005030FEF73BF8804694F85130DBB2012B06
:1026A00072D1002E72D0002F72D0032384F85130E3
:1026B000002363652663A786E786A363A387E38772
:1026C00063642364A368B3F5004F04D122681368E0
:1026D00043F48043136023681A6812F0400F03D15B
:1026E0001A6842F040021A60E368B3F5006F31D116
:1026F00016E023689A6812F0020F06D036F8022B13
:10270000DA60E38E013BE3860AE0002D42D0B5F1AA
:10271000FF3F05D0FDF7FAFFC8EB000085423BD92B
:10272000E38E002BE5D118E023689A6812F0020FBF
:1027300006D016F8012B1A73E38E013BE38609E0FD
:1027400065B3B5F1FF3F05D0FDF7E0FFC8EB000032
:10275000854225D9E38E002BE6D142462946204604
:10276000FFF77AFE18B1636D43F020036365A36839
:1027700033B901932368DA6801929B680193019B46
:10278000636D7BB900200EE002200CE001200AE01E
:10279000012008E0032006E0032004E0032002E01B
:1027A000032000E00120012384F85130002384F845
:1027B000503000E0022002B0BDE8F081D4C400082F
:1027C0002DE9F84304460E4617469846089D83684F
:1027D00023B14FF44A71644800F052FE94F850302F
:1027E000012B00F0BE80012384F85030FDF78EFFEE
:1027F000814694F85130DBB2012B0ED06368B3F5FB
:10280000827F40F09580A368002B40F0938094F87D
:102810005130DBB2042B40F08F80002E00F08E8010
:10282000002F00F08D80B8F1000F00F08B8094F83D
:102830005130DBB2012B02D1052384F85130002343
:102840006365A763A4F83E80A4F83C802663A4F8DF
:102850003680A4F834802364636423681A6812F015
:10286000400F03D11A6842F040021A60E368B3F5E2
:10287000006F4BD121E053B123689A6812F0020F28
:1028800005D036F8022BDA60E38E013BE386E38F56
:1028900053B123689A6812F0010F05D0DB6827F85E
:1028A000023BE38F013BE387B5F1FF3F05D0FDF726
:1028B0002DFFC9EB0000854246D9E38E002BDAD10B
:1028C000E28F002AD7D127E053B123689A6812F02B
:1028D000020F05D032781A73E38E013BE38601368E
:1028E000E38F53B123689A6812F0010F05D0DB68BB
:1028F0003B70E38F013BE3870137B5F1FF3F05D024
:10290000FDF704FFC9EB000085421FD9E38E002BC1
:10291000DAD1E28F002AD7D14A4629462046FFF76E
:102920009BFDA8B1636D43F020036365012010E0B7
:1029300002200EE002200CE002200AE0012008E064
:10294000012006E0012004E0032002E0032000E073
:102950000020012384F85130002384F85030BDE872
:10296000F8830220BDE8F883D4C4000890F8510031
:10297000704700BF704700BF10B504460368234A84
:10298000934237D0B3F1804F34D0A2F57C429342CA
:1029900030D002F5806293422CD002F580629342DF
:1029A00028D002F58062934224D002F580629342DF
:1029B00020D002F5704293421CD002F5705293422F
:1029C00018D002F58062934214D002F580629342DF
:1029D00010D0A2F5983293420CD002F58062934257
:1029E00008D002F58062934204D04FF4B2710848D7
:1029F00000F046FD2268D36843F00103D3602268EB
:102A0000136843F001031360002010BD0000014073
:102A100004C50008704700BF704700BF704700BF83
:102A2000704700BF10B5044603681A6912F0020F20
:102A300017D0DA6812F0020F13D06FF002021A6199
:102A40000123037603689B6913F0030F02D0FFF79D
:102A5000E3FF04E0FFF7DEFF2046FFF7DFFF002380
:102A6000237623681A6912F0040F19D0DA6812F07D
:102A7000040F15D06FF004021A6102232376236835
:102A80009B6913F4407F03D02046FFF7C5FF05E0A4
:102A90002046FFF7BFFF2046FFF7C0FF0023237645
:102AA00023681A6912F0080F19D0DA6812F0080FBB
:102AB00015D06FF008021A61042323762368DB69BE
:102AC00013F0030F03D02046FFF7A6FF05E02046D2
:102AD000FFF7A0FF2046FFF7A1FF0023237623681E
:102AE0001A6912F0100F19D0DA6812F0100F15D011
:102AF0006FF010021A61082323762368DB6913F450
:102B0000407F03D02046FFF787FF05E02046FFF710
:102B100081FF2046FFF782FF0023237623681A698E
:102B200012F0010F09D0DA6812F0010F05D06FF032
:102B300001021A61204600F085F923681A6912F033
:102B4000800F09D0DA6812F0800F05D06FF0800294
:102B50001A61204600F026F923681A6912F0400F26
:102B600009D0DA6812F0400F05D06FF040021A6108
:102B70002046FFF755FF23681A6912F0200F09D08D
:102B8000DA6812F0200F05D06FF020021A6120469B
:102B900000F006F910BD00BF0368454A904214D00A
:102BA000B0F1804F13D0A2F57C42904211D002F5D3
:102BB000806290420FD002F5806290420DD002F503
:102BC000784290420BD101220AE0012208E0012262
:102BD00006E0012204E0012202E0012200E00022DE
:102BE0001AB123F070034A681343314A90422CD043
:102BF000B0F1804F2BD0A2F57C42904229D002F553
:102C00008062904227D002F58062904225D002F582
:102C10007842904223D002F57052904221D002F5C2
:102C2000806290421FD002F5806290421DD0A2F5D2
:102C3000983290421BD002F58062904219D002F582
:102C40008062904217D1012216E0012214E0012295
:102C500012E0012210E001220EE001220CE001222C
:102C60000AE0012208E0012206E0012204E001223C
:102C700002E0012200E000221AB123F44073CA6886
:102C8000134303608B68C3620B688362084B9842EE
:102C900005D003F58063984203D1012302E00123AC
:102CA00000E000230BB10B6903630123436170470C
:102CB0000000014000286DD010B504460368364A74
:102CC000934236D0B3F1804F33D0A2F57C42934289
:102CD0002FD002F5806293422BD002F5806293429E
:102CE00027D002F58062934223D002F5806293429E
:102CF0001FD002F5704293421BD002F570529342EE
:102D000017D002F58062934213D002F5806293429D
:102D10000FD0A2F5983293420BD002F58062934215
:102D200007D002F58062934203D0D9211B4800F0FE
:102D3000A7FBA3685BB1102B09D0202B07D0402B39
:102D400005D0602B03D0DA21144800F099FB2369E9
:102D50004BB1B3F5807F06D0B3F5007F03D0DB2104
:102D60000E4800F08DFB94F8393013F0FF0F05D1B9
:102D7000002384F838302046FFF7FCFD022384F856
:102D80003930211D2068FFF707FF012384F839300F
:102D9000002010BD012070470000014004C500085C
:102DA000704700BF704700BF00B589B000220146E0
:102DB0003620FDF7DDFC3620FDF71CFD00230193D6
:102DC000174B1A6C42F010021A641B6C03F01003CC
:102DD0000193019B02A903A8FFF7D6F9069B13B93B
:102DE000FFF7BAF902E0FFF7B7F940000D4BA3FB7C
:102DF00000239B0C013B0C480C4A026040F2E73276
:102E0000C2604360002303618360FFF753FF18B97A
:102E10000548FFF7B1FD00E0012009B05DF804FBB3
:102E20000038024083DE1B433005002000100040C4
:102E3000034B1A68D36823F00103D360704700BFC7
:102E40003005002008B5FDF759FC08BD08B502485B
:102E5000FFF7E8FD08BD00BF3005002008B50348B6
:102E600000F030FB012000F071F800BF34C500080D
:102E700008B50D4B1B6813B90C4A0B4B1A600A4B73
:102E80001A68C31C23F00303134409498B4206D973
:102E900004F0AEF80C2303604FF0FF3008BD024988
:102EA0000B60104608BD00BF440300207C170120C2
:102EB00000FC0120002006E0064B53F83030B3F14F
:102EC000FF3F02D001301328F6DD142801D14FF066
:102ED000FF307047CC03002030B500251324204676
:102EE0002946ABBE0446204630BD00BF38B5044677
:102EF00004F07EF80546FFF7EFFF2860204638BD56
:102F0000B0F1FF3F03D108B5FFF7F0FF08BD7047F0
:102F100010B504460B4B186818B1836B0BB904F05D
:102F2000CBF9132C09D8084B53F83430B3F1FF3FD9
:102F300005D0054800EBC40010BD002010BD0020E6
:102F400010BD00BF70010020CC03002000B508B9FF
:102F5000044D00E0044D182420462946ABBE04462B
:102F6000FEE700BF26000200230002002DE9F04129
:102F700084B0234F01970326039600230293012474
:102F800001AD20462946ABBE80461E4BC3F80080EB
:102F9000019703960423029320462946ABBE804640
:102FA000194BC3F80080019703960823029320462B
:102FB0002946ABBE0446154B1C60B4F1FF3F03D15C
:102FC000114B1A68114B1A60002305E04FF0FF31D6
:102FD0000F4A42F833100133132BF7DD0C4B094A2B
:102FE00012681A6000225A60074909689960DA601D
:102FF0000649096819615A6104B0BDE8F08100BF53
:1030000048C50008C403002048030020C80300206E
:10301000CC0300202DE9F04782B082468946314B2F
:1030200000934F2301936D46152420462946ABBEDD
:103030000446002C40D100272A4B83F84F70009D96
:10304000B8463E4633E0E6B904F0D6FA204490F99B
:103050000130002B03DB092C03D1012302E0012303
:1030600000E0002313BB082F27DC222C01D0272CE3
:1030700001D10135A0461C4B43F8275001370126EA
:1030800014E0A0450ED004F0B7FA204490F90130C6
:10309000002B03DB092C03D1012302E0012300E014
:1030A00000231BB100232B7098461E46013595F96D
:1030B0000040002CC7D100E000272FB9094B0022A7
:1030C0001A70094A13600137074B002243F8272082
:1030D000CAF80070C9F80030FFF748FF02B0BDE839
:1030E000F08700BF740300204C03002030B585B08A
:1030F00001900291039201AD062420462946ABBE01
:1031000004462046FFF7FCFE05B030BD70B50E4604
:103110001546FFF7FDFE30B903F06AFF092303608F
:103120004FF0FF3070BD04462A4631460068FFF775
:10313000DDFFB0F1FF3F03D0281A636803446360EA
:1031400070BD00BFF0B583B00C461546FFF7E0FE3A
:1031500030B903F04DFF092303604FF0FF304DE01D
:103160000646022D06D903F043FF162303604FF0F5
:10317000FF3043E0012D13D14368E4180FD503F06D
:1031800037FF162303607368002B2CDD002C2DDD28
:1031900003F02EFF8B2303604FF0FF302EE000255D
:1031A000022D0FD1336802AF47F8083D0C252846A1
:1031B0003946ABBE05462846FFF7A2FEB0F1FF3FF9
:1031C00017D004443368009301946F460A252846BB
:1031D0003946ABBE05462846FFF792FE00280BDBBA
:1031E000746020460AE04FF0FF3007E04FF0FF30F8
:1031F00004E04FF0FF3001E04FF0FF3003B0F0BDCE
:1032000008B5FFF79FFF08BD30B585B0019002916A
:10321000039201AD052420462946ABBE0446204654
:10322000FFF76EFE05B030BD70B50E461446FFF7D1
:103230006FFE30B903F0DCFE092303604FF0FF306E
:1032400070BD0546224631460068FFF7DDFF021ECD
:1032500009DBA01A6B6803446B60944205D100201F
:10326000FFF744FE70BD4FF0FF3070BD30B583B046
:1032700002AD45F8040D022420462946ABBE0446A3
:103280002046FFF73DFE03B030BD00BF38B5044611
:10329000FFF73EFE30B903F0ABFE092303604FF0A9
:1032A000FF3038BD0546013C012C09D8094B9A680E
:1032B0001B699A4204D14FF0FF330360002038BDF0
:1032C0002868FFF7D3FF18B94FF0FF322A6038BDE6
:1032D00038BD00BFCC03002070B50C46FFF718FEC8
:1032E00030B903F085FE092303604FF0FF3070BD55
:1032F0000646636843F4005363604FF48063E362FF
:103300000C2528463146ABBE05462846FFF7F8FD9A
:10331000B0F1FF3F02D02061002070BD4FF0FF30C0
:1033200070BD00BF38B505460C463C220021204642
:1033300004F0DEF921462846FFF7CEFF38BD00BF76
:1033400038B505460C463C220021204604F0D0F951
:103350000021284600F06EF8B0F1FF3F0DD0054681
:10336000636843F4014363602146FFF7B5FF0446F9
:103370002846FFF78BFF204638BD4FF0FF3038BDA1
:10338000F0B593B007460D46FFF794FDB0F1FF3F4F
:1033900006D103F02DFE182303604FF0FF3045E007
:1033A000044605F42063B3F5206F0DD16946384615
:1033B000FFF7C6FFB0F1FF3F06D003F019FE11235F
:1033C00003604FF0FF3031E015F4803F01D100265B
:1033D00000E0012615F0020F01D046F0020640F28F
:1033E00001631D4201D046F0040615F0080F03D01A
:1033F00026F0040646F008060F97384605F09DFAB9
:10340000119010960FAE012528463146ABBE0546F9
:10341000002D08DB064B43F8345003EBC4030022B5
:103420005A60204602E02846FFF760FD13B0F0BD69
:10343000CC0300200EB400B50199FFF7A1FF5DF8A1
:1034400004EB03B0704700BF38B5FFF761FD28B942
:1034500003F0CEFD09230360002038BD0546092492
:1034600020462946ABBE0446012C07D003F0C0FD20
:103470000446FFF731FD2060002038BD012038BD33
:1034800008B50A460146024800F004F8FFF7E6FCDA
:1034900094C500080FB400B583B004AB53F8042BF7
:1034A00001938021064806F0F3F9002803DD014668
:1034B000034800F04FF803B05DF804EB04B0704728
:1034C0006C04002010B5044605F037FA014620468A
:1034D00000F040F80121024800F03CF810BD00BFA8
:1034E00084C60008F0B585B006460C46174B1B682D
:1034F00083B9174B0193042302930323039301AF72
:10350000012528463946ABBE0546B5F1FF3F13D02D
:103510000E4B1D600D4B1B6801930296039401AE88
:10352000052528463146ABBE0546B5F1FF3F06D01E
:10353000A54207D0601B07E04FF0FF3004E04FF0DA
:10354000FF3001E04FF0FF3005B0F0BDEC0400208B
:1035500048C5000808B5FFF7C5FF08BD08B500F06D
:10356000D3F9044AD2F8883043F47003C2F88830A3
:1035700008BD00BF00ED00E0F8B504460D46174653
:103580001E462648FFF786FF21682548FFF782FF81
:1035900061682448FFF77EFFA1682348FFF77AFFA0
:1035A000E1682248FFF776FF21692148FFF772FFA3
:1035B00061692048FFF76EFFA1691F48FFF76AFFA6
:1035C000E1691E48FFF766FF1D48FFF763FF2946C4
:1035D0001C48FFF75FFF1C4CE16A1C48FFF75AFFCD
:1035E000216B1B48FFF756FFE16B1A48FFF752FFAC
:1035F00015F0800F03D039461748FFF74BFF15F43D
:10360000004F03D031461548FFF744FF1448FFF739
:1036100041FF06991348FFF73DFFF8BDECC50008D0
:10362000FCC500080CC600081CC600082CC6000813
:103630003CC600084CC600085CC600086CC6000802
:103640007CC6000888C6000800ED00E098C60008A7
:10365000A8C60008B8C60008C8C60008D8C6000832
:10366000E8C60008F0C6000838B583691B888B429D
:103670006ED1044603684568013B302B6AD8DFE809
:1036800003F0411D6262592C2F2919196919191962
:1036900019193219206919236935696969696969D4
:1036A000696969696969696969696969696969698A
:1036B000691919004FF0FF33036044E000230360F1
:1036C00041E0002303603EE000232B606B60AB60B1
:1036D000EB6038E00023036035E0AB68036032E064
:1036E000002303602FE0002303602CE0BFF34F8F23
:1036F0001949CA6802F4E062184B1343CB60BFF368
:103700004F8FFEE71649286805F00DF970B96B6810
:1037100013B90123236016E0042B02D10223236096
:1037200011E0082B02D1032323600CE04FF0FF339C
:10373000236008E02B68023B012B02D800230360C2
:1037400001E0AB680360A3690233A361012038BDC7
:10375000002038BD002038BD00ED00E00400FA056F
:1037600048C5000830B40B46002404E0B0F900500E
:103770002C44013B0230002BF8D194FBF1F414806F
:1037800030BC70479FED1F7A20EE077AFDEEC77AB6
:10379000B5EEC00AF1EE10FA04D517EE903A013BEF
:1037A00007EE903AF8EEE77A77EE677A9FED167AB1
:1037B00067EE877AF4EEC77AF1EE10FA01DB77EE66
:1037C000C77ABCEEE77A17EE103AC3F3080307EEA8
:1037D000103AB8EE470A77EEC07A0C4A02EB830142
:1037E00091ED007A013302EB8303D3ED006AB7EE6B
:1037F000000A30EE670A27EE000A67EEA67A30EE7E
:10380000270A704783F9223E0000004434C70008AD
:1038100010B49C0823E090ED006A91ED004AD0EDD1
:10382000016AD1ED014A90ED027A91ED025AD0ED94
:10383000037AD1ED035A36EE046A82ED006A76EE21
:10384000A46AC2ED016A37EE057A82ED027A77EE5C
:10385000A57AC2ED037A103010311032013C002CF1
:10386000D9D103F003030BE0D0ED007A91ED007A9B
:1038700077EE877AC2ED007A013B043204310430DE
:10388000002BF1D15DF8044B704700BF10B49C08C9
:1038900023E090ED007A91ED006AD0ED017AD1ED50
:1038A000016A27EE066A90ED027AD1ED025A67EEC0
:1038B000A66AD0ED037A82ED006A91ED036A27EEE5
:1038C000257AC2ED016A67EE867A82ED027AC2ED50
:1038D000037A103010311032013C002CD9D103F0A2
:1038E00003030BE0D0ED007A91ED007A67EE877A62
:1038F000C2ED007A013B043204310430002BF1D1D7
:103900005DF8044B704700BF0F49D1F8883043F48D
:103910007003C1F888300D4B1A6842F001021A603A
:10392000002098601A6822F0847222F480321A60B3
:10393000074A5A601A6822F480221A60D8604FF051
:1039400000638B60704700BF00ED00E0003802406C
:103950001030002410F0AA3F14BF01230023020CF2
:10396000120402B11022134310F0FF2200D00822EB
:10397000134310F0F03200D00422134310F0CC3087
:1039800000D002201843704708B502F07FFE0020E7
:1039900008BD00BF38B50546052002F083FEEDB234
:1039A000012219212846FFF7EFFF04460322802158
:1039B0002846FFF7E9FF04444EF2220281212846FF
:1039C000FFF7E2FF04444FF4C1424FF482612846FE
:1039D000FFF7DAFF04444AF280024FF4836128467D
:1039E000FFF7D2FF04444AF280024FF48461284674
:1039F000FFF7CAFF04444FF460424FF48561284644
:103A0000FFF7C2FF04444DF61A4240F243412846F4
:103A1000FFF7BAFF044466224FF496612846FFF789
:103A2000B3FF04440B224FF48B612846FFF7ACFF31
:103A30000444002240F212212846FFF7A5FF044467
:103A4000002240F271112846FFF79EFF04440C2229
:103A500040F25E312846FFF797FF044400224FF4FE
:103A600035712846FFF790FF044400228021284644
:103A7000FFF78AFF0444052002F014FE204638BDFB
:103A80002DE9F84345F22263994209D04AF64443AE
:103A9000994205D042F61133994201D0524D00E0CF
:103AA000524D4901002313E091420FD306EB460427
:103AB000A2004F4C22445268914207D273009F19D2
:103AC000BA00224492F80880577A0CE00133DBB246
:103AD0001E4603EB4304A200454CA258002AE3D142
:103AE00010274FF001084FEA8509B9FBF1F11FFAE1
:103AF00081F9C6B2002240F291113046FFF744FF2F
:103B0000044649F400424FF4C9713046FFF73CFFC8
:103B10000444002240F293113046FFF735FF04447D
:103B200001224FF4CA713046FFF72EFF044440468D
:103B3000FFF710FF1FFA80F84FEA082242F0080250
:103B400092B240F295113046FFF71EFF04444FEA4F
:103B5000881242F0080292B24FF4CB713046FFF760
:103B600013FF04443846FFF7F5FE800082B240F2AE
:103B700099113046FFF708FF0444012240F29111E9
:103B80003046FFF701FF0444062240F60441304668
:103B9000FFF7FAFE044400224FF4D5713046FFF7D8
:103BA000F3FE044409224FF4D5713046FFF7ECFED2
:103BB0000444052002F076FD0B4B9D4209D140F2F2
:103BC000452240F201113046FFF7DEFE2044BDE8F9
:103BD000F88348F2452240F201113046FFF7D4FE47
:103BE0002044BDE8F88300BF000077010088580139
:103BF00038CF000870B5002316E08A4212D1C5B252
:103C00000D4B03EBC40422794FF481712846FFF772
:103C1000BBFE064662794FF4A0612846FFF7B4FE6A
:103C2000304470BD0133DBB21C46034A52F83320E6
:103C3000002AE2D1002070BD74CF000808B5FFF75C
:103C4000D9FF002008BD00BF38B5C5B2022240F23E
:103C500004512846FFF798FE0446042240F2025120
:103C60002846FFF791FE0444012002F01BFD0022CC
:103C700040F21A512846FFF787FE0444002240F222
:103C800019512846FFF780FE044441F2100240F229
:103C900007512846FFF778FE044441F210024FF422
:103CA000A1612846FFF770FE0444202240F206512D
:103CB0002846FFF769FE0444202240F205512846B9
:103CC000FFF762FE0444032240F21A512846FFF730
:103CD0005BFE0444032240F219512846FFF754FECC
:103CE000204438BD38B5012921D1C5B24FF4407206
:103CF00040F219412846FFF747FE04464FF4407250
:103D000040F21D412846FFF73FFE04444FF4407245
:103D100040F211412846FFF737FE04444FF4407249
:103D200040F215412846FFF72FFE204438BDC5B2AA
:103D30004FF4207240F219412846FFF725FE044651
:103D40004FF4207240F21D412846FFF71DFE044447
:103D50004FF4207240F211412846FFF715FE04444B
:103D60004FF4207240F215412846FFF70DFE204423
:103D700038BD00BF08B50021FFF7B4FF08BD00BF84
:103D800008B50121FFF7AEFF08BD00BF08B500214F
:103D9000FFF7A8FF08BD00BF08B50121FFF7A2FF8C
:103DA00008BD00BF70B5064664290BD801EB41037E
:103DB000C1EB83132E4C84FB0324DB17C3EB641489
:103DC000E4B200E06424BF2C26D900213046FFF77E
:103DD00089FF0446F6B240F2BF2240F21941304654
:103DE000FFF7D2FD044440F2BF2240F21D413046AD
:103DF000FFF7CAFD044440F2BF2240F211413046B1
:103E0000FFF7C2FD044440F2BF2240F215413046A4
:103E1000FFF7BAFD204470BD21B901213046FFF7FC
:103E200061FF70BD00213046FFF75CFF0546F6B22A
:103E300044F40074224640F219413046FFF7A4FDD5
:103E40000544224640F21D413046FFF79DFD0544E2
:103E5000224640F211413046FFF796FD05442246C6
:103E600040F215413046FFF78FFD284470BD00BF7A
:103E70001F85EB5170B505460139032900F2968084
:103E8000DFE801F0022E5A5AC6B220224FF4D26166
:103E90003046FFF779FD0446802240F291613046BA
:103EA000FFF772FD044421224FF4D3613046FFF73F
:103EB0006BFD0444802240F299613046FFF764FDB7
:103EC000044400224FF4D0613046FFF75DFD044406
:103ED00000224FF4D1613046FFF756FD044466E0FE
:103EE000C6B200224FF4D2613046FFF74DFD0446C2
:103EF00000224FF4D3613046FFF746FD04442022F0
:103F00004FF4D0613046FFF73FFD0444802240F279
:103F100081613046FFF738FD044421224FF4D1611E
:103F20003046FFF731FD0444802240F2896130467B
:103F3000FFF72AFD04443AE0C6B220224FF4D261D2
:103F40003046FFF721FD0446802240F29161304661
:103F5000FFF71AFD044421224FF4D3613046FFF7E6
:103F600013FD0444802240F299613046FFF70CFDB6
:103F7000044420224FF4D0613046FFF705FD04448D
:103F8000802240F281613046FFF7FEFC044421228A
:103F90004FF4D1613046FFF7F7FC0444802240F231
:103FA00089613046FFF7F0FC044400E000240F2252
:103FB0004FF48061E8B2FFF7E7FC204470BD00BF1A
:103FC00008B500221146C0B2FFF7DEFC08BD00BFF5
:103FD00008B502F059FB08BD10B5044602F010FB0D
:103FE0000021E0B202F058FB10BD00BF08B502F09E
:103FF00053FBC0B208BD00BF2DE9F8438946154602
:104000001C46DDF82080099F4FF4E063A8F80030DB
:104010004FF4E1633B80C6B2B8F800103046FFF7BA
:10402000E5FF288039883046FFF7E0FF20802B88A5
:10403000502B0CD14FF408613046FFF7D7FF288092
:10404000B9F1020F03D04FF40863A8F800302388B9
:10405000512B0BD140F688013046FFF7C7FF208077
:10406000B9F1020F02D040F688033B80B9F1020F8C
:104070001ED02B88602B0CD14FF410613046FFF717
:10408000B5FF2880B9F1010F03D04FF41063A8F8F1
:1040900000302388612B0BD140F608113046FFF722
:1040A000A5FF2080B9F1010F02D040F608133B8034
:1040B000BDE8F88370B584B005460C4602AB0193A9
:1040C0000DF10A03009303AB0DF10E020021FFF77F
:1040D00093FF022C33D0032C67D0012C40F0938047
:1040E0001223ADF80E301323ADF80C30EEB20C22D3
:1040F0004FF440713046FFF747FC04464FF45252EC
:104100004FF446713046FFF73FFC04444FF42072F1
:1041100040F21D313046FFF737FC04444FF4207263
:1041200040F219313046FFF72FFC044440F2A71249
:1041300040F219213046FFF727FC044490E0102399
:10414000ADF80E301123ADF80C30EEB203224FF46F
:1041500040713046FFF718FC04464FF42A524FF4E2
:1041600044713046FFF710FC044480224FF445713F
:104170003046FFF709FC04444FF4207240F211313D
:104180003046FFF701FC04444FF4207240F2153131
:104190003046FFF7F9FB044440F2A7124FF40671D2
:1041A0003046FFF7F1FB04445AE01423ADF80E301B
:1041B0001523ADF80C30EEB230224FF4407130468A
:1041C000FFF7E2FB044642F290224FF4487130467A
:1041D000FFF7DAFB04444FF4207240F221313046FD
:1041E000FFF7D2FB044490224FF449713046FFF7A9
:1041F000CBFB04444FF4207240F225313046FFF7E8
:10420000C3FB04442CE01423ADF80E301523ADF8A5
:104210000C30EEB230224FF440713046FFF7B4FB61
:10422000044642F290224FF448713046FFF7ACFB4F
:1042300004444FF4207240F221313046FFF7A4FBD2
:10424000044490224FF449713046FFF79DFB04442B
:104250004FF4207240F225313046FFF795FB0444BD
:10426000EDB2BDF80E20BDF80A102846FFF78CFB12
:104270000444BDF80C20BDF808102846FFF784FB65
:104280000444802240F201712846FFF77DFB04447C
:10429000802240F209712846FFF776FB204404B0E3
:1042A00070BD00BF2DE9F047054617469A465FFAF4
:1042B00081F80E0A02F0A4F95FFA85F9002211468E
:1042C0004846FFF761FB04462846FFF763FB51466B
:1042D0002846FFF7D5FB044451462846FFF78AFCE1
:1042E000044409224FF48B614846FFF74DFB044418
:1042F00001224FF400714846FFF746FB0444D522E3
:104300004FF404714846FFF73FFB04442846FFF78B
:104310009BFC41462846FFF7ADFD31462846FFF796
:10432000C9FE39462846FFF73DFD2046BDE8F08727
:104330002DE9F04184B004460F461646984602AB7C
:1043400001930DF10A03009303AB0DF10E0201215D
:10435000FFF752FE07B3E5B2012F01D1012200E0C1
:1043600003224FF46C612846FFF70EFB424640F6ED
:10437000C1612846FFF708FBBDF80E204FF410611D
:104380002846FFF701FB802240F601112846FFF77F
:10439000FBFA6023ADF80E300EB3E5B2012E01D169
:1043A000012200E0032240F6C4612846FFF7ECFA40
:1043B000BDF8282040F6C5612846FFF7E5FABDF8AC
:1043C0000C2040F608112846FFF7DEFA802240F65E
:1043D00009112846FFF7D8FA6123ADF80C30E4B292
:1043E000BDF80E20BDF80A102046FFF7CDFABDF843
:1043F0000C20BDF808102046FFF7C6FA04B0BDE84F
:10440000F08100BF2DE9F04F85B005468A46914600
:104410001C46DDF838800F9F109E02AB01930DF112
:104420000A03009303AB0DF10E020221FFF7E4FD36
:10443000BAF1000F4FD06CB3E8B294F9003003F139
:104440000C0194F901300C339B0194F902200C32D9
:1044500043EAC12343EA420242F0010292B24FF41E
:1044600061618346FFF790FA94F903200C3294F9C6
:1044700004300C339B0143EAC222BAF1010F08BF9A
:1044800042F00102B2FA82F2520940F61161584636
:10449000FFF77AFA5FB90DE004F6126137F81420DD
:1044A00089B2E8B2FFF770FA0134A4B200E0002448
:1044B000122CF1D9ECB2BDF80E204FF40861204661
:1044C000FFF762FA802240F681012046FFF75CFA8E
:1044D0005023ADF80E30B9F1000F51D0B8F1000FF4
:1044E0002DD0ECB298F9003003F10C0198F90130AD
:1044F0000C339B0198F902200C3243EAC12343EAB2
:10450000420242F0010292B240F626612046FFF7D5
:104510003BFA98F903200C3298F904300C339B01D4
:1045200043EAC222B9F1010F08BF42F00102B2FA18
:1045300082F2520940F627612046FFF725FA5EB95C
:104540000DE004F6286136F8142089B2E8B2FFF7CE
:104550001BFA0134A4B200E00024122CF1D9ECB211
:10456000BDF80C2040F688012046FFF70DFA8022A6
:1045700040F689012046FFF707FA5123ADF80C30C9
:10458000EDB2BDF80E20BDF80A102846FFF7FCF981
:10459000BDF80C20BDF808102846FFF7F5F905B066
:1045A000BDE8F08F704700BF30B583B005460023EB
:1045B0008DF80730FBF7B6FF02AC04F8015D01226D
:1045C00020212046FBF7FCFF2D0A8DF80750012221
:1045D00024212046FBF7F4FF03B030BD10B582B0B4
:1045E00002AC002304F8013DFBF79CFF01220F21E0
:1045F0002046FCF707F89DF8070002B010BD00BF89
:1046000000B583B0012225210DF10700FBF7FAFF69
:104610009DF8073063F07F038DF8073001222521D4
:104620000DF10700FBF7CCFF03B05DF804FB00BF02
:1046300010B584B00446012224210DF10700FBF7D8
:10464000E1FF0122282102A8FBF7DCFF012229213A
:104650000DF10900FBF7D6FF01222A210DF10A0016
:10466000FBF7D0FF01222B210DF10B00FBF7CAFF56
:1046700001222C2103A8FBF7C5FF01222D210DF1FA
:104680000D00FBF7BFFF9DF8073003F03803083B30
:10469000182B0ED8DFE803F0190D0D0D0D0D0D0DC3
:1046A000100D0D0D0D0D0D0D130D0D0D0D0D0D0D31
:1046B00016009FED177A0AE09FED167A07E09FED4E
:1046C000167A04E09FED157A01E09FED157A00223D
:1046D00019E051004B1C04A8034413F9080C04AB67
:1046E000194411F9083C03EB002307EE903AF8EE69
:1046F000E77A67EE277AFDEEE77A17EE903A24F82C
:1047000012300132D2B2022AE3D904B010BD00BF88
:104710008FC2753DEC51383E8FC2753E48E13A3F3D
:104720008FC2F53D30B583B0044643780278817876
:1047300013430B4302AD05F8013D01222321284616
:10474000FBF73EFFE278237913438DF8073001220F
:1047500021212846FBF734FF6279A37913438DF8B2
:104760000730012222212846FBF72AFF03B030BD83
:1047700030B583B000248DF80740FBF7F9FE8DF8C3
:1047800001408DF8004040238DF802308DF8034041
:1047900001258DF805508DF806406846FFF7C2FFE9
:1047A00002AC032304F8013D2A4652212046FBF7C0
:1047B00007FFC8238DF807302A4654212046FBF70F
:1047C000FFFE45238DF807302A4656212046FBF789
:1047D000F7FEFC238DF807302A465A212046FBF7C6
:1047E000EFFEA1238DF807302A465B212046FBF718
:1047F000E7FE8DF807502A465C212046FBF7E0FED5
:104800002A467B212046FBF7DBFE2A466021204614
:10481000FBF7D6FE06238DF807302A466121204695
:10482000FBF7CEFE28238DF807302A46622120466A
:10483000FBF7C6FE11238DF807302A466321204678
:10484000FBF7BEFE03B030BD704700BF10B582B0AD
:10485000044600238DF80730FBF764FE02A800F839
:10486000014D01222021FBF7ABFE02B010BD00BFBD
:1048700010B582B002AC002304F8013DFBF752FEF4
:1048800001220F212046FBF7BDFE9DF8070002B074
:1048900010BD00BF30B583B0054602AC002304F85C
:1048A000013D012221212046FBF7ACFE9DF8073097
:1048B00003F0D0031D438DF807500122212120462B
:1048C000FBF77EFE03B030BD00B585B004A8002321
:1048D00000F8093D01223921FBF794FE0622272129
:1048E00002A8FBF78FFE05B05DF804FB00B583B0AE
:1048F000012221210DF10700FBF784FE9DF807300E
:1049000043F040038DF80730012221210DF107000B
:10491000FBF756FE03B05DF804FB00BF10B586B090
:104920000446012220210DF10700FBF76BFE062251
:10493000292104A8FBF766FE002308E006AA02EB83
:10494000430212F9081C22F8101C0133DBB2022BBF
:10495000F4D99DF8073013F0200F01D1122100E0A7
:10496000482100230AE006AA02EB430232F9102C88
:1049700012FB01F224F813200133DBB2022BF2D92F
:1049800006B010BD30B583B0054602AC002304F874
:10499000013D012238212046FBF734FE2B786A784E
:1049A000A97813430B438DF80730012238212046A4
:1049B000FBF706FE03B030BD70B582B000238DF862
:1049C0000730FBF7D5FD40238DF8043010238DF818
:1049D000053020238DF8063001A8FFF7D3FF3F25CF
:1049E00002AC04F8015D012222212046FBF7E8FD1C
:1049F00050238DF80730012238212046FBF7E0FDD7
:104A0000AA238DF8073001223B212046FBF7D8FD71
:104A10000A238DF8073001223C212046FBF7D0FD08
:104A20004C238DF80730012230212046FBF7C8FDCA
:104A300003238DF8073001223D212046FBF7C0FDFE
:104A40007F268DF8076001223E212046FBF7B8FD46
:104A50008DF80760012229462046FBF7B1FD02B020
:104A600070BD00BF30B595B0002401941B4B1A6C8B
:104A700042F080521A641B6C03F080530193019B37
:104A80000294174B1A6842F440421A601B6803F400
:104A900040430293029B012303930493022509954B
:104AA0004FF480030A9308230B934FF4A8730C93DD
:104AB0000D9507230E9303A8FCF79AFF0F230F937E
:104AC000109511944FF4A05312934FF48053139305
:104AD00005210FA8FDF7BAF915B030BD0038024026
:104AE0000070004008B5FEF70FFF074AD2F8883083
:104AF00043F47003C2F88830FBF7EAFDFEF798F93B
:104B0000FFF7B0FF08BD00BF00ED00E00B4AD3681F
:104B100043F08073D3600A4B00225A601A6802F097
:104B200001021A601A6842F001021A605A6800BF56
:104B300000BF00BF5868801A704700BFF0ED00E06A
:104B4000001000E010B52A48FBF7A8FD294B1B68B0
:104B5000012B09D8264AB2F90010274A22F813106F
:104B60000133244A13600CE00022224B1A60234CCC
:104B7000224602212048FEF7F5FD238803F5006355
:104B800023801F4B1B68012B09D8194AB2F9021068
:104B90001C4A22F813100133194A13600CE000225A
:104BA000174B1A60184C224602211648FEF7DAFD10
:104BB000238803F500632380144B1B68012B09D85D
:104BC0000B4AB2F90410124A22F8131001330F4AAB
:104BD000136010BD00220D4B1A600E4C22460221BC
:104BE0000B48FEF7BFFD238803F50063238010BD4B
:104BF000BCE50020CC150120C4050120D4150120FE
:104C0000841500207C150020C2E5002078150020C6
:104C100088150020700500200222014B1A70704791
:104C2000F40400200122014B1A707047F4040020A4
:104C300000283FD008B5013803283AD8DFE800F053
:104C4000020A12264FF480631B4A1C491C48FEF7D7
:104C5000DFFD08BD4FF480631A4A18491848FEF773
:104C6000D7FD08BD0022184B1A6009E09A001349CD
:104C7000114409681348024411600133124A136059
:104C8000114B1B68B3F5806FF0D308BD00220E4BAB
:104C90001A6009E09A000A49114409680948024467
:104CA00011600133084A1360074B1B68B3F5806F2E
:104CB000F0D308BD704700BF944500209015002038
:104CC0009C6500209C5500209855002018B10128B3
:104CD00002D0022845D0704730B52DED028B83B04D
:104CE0002D492E4802F096FB2D4B186000222D4BCB
:104CF0001A6010E02C4B03EB8203186801F03AFEB7
:104D000002460B4629492648006802F08BFB254ADB
:104D1000136801331360234B1A68B2F5806FE9D32F
:104D20001F4B186802F0BCF9214B93ED007A9FED00
:104D3000218A67EE087AB5EE008A27EE888A17EE98
:104D4000100A01F017FE04460D4618EE100A01F095
:104D500011FECDE9000122462B461748FEF79AFBCB
:104D600016E000220F4B1A600CE09A000E49114425
:104D7000086812491144086011490A44106001335F
:104D8000084A1360074B1B68B3F5806FEDD370477B
:104D900003B0BDEC028B30BDC4CF0008C8CF000803
:104DA000DC1501209855002094450020E8CF00082C
:104DB0000005002000008039ECCF0008A07500201D
:104DC000C4F500200000000038B52DED028B10EE78
:104DD000100A01F0CFFD04460D460FF22043D3E93F
:104DE000002302F08DF8002840F052810FF21443A6
:104DF000D3E900232046294602F082F8002840F03B
:104E00004A810FF20843D3E900232046294602F0E5
:104E100077F8002840F04281FEA3D3E90023204622
:104E2000294602F06DF8002840F03B81FBA3D3E94E
:104E300000232046294602F063F8002840F0348120
:104E4000F8A3D3E900232046294602F059F80028A8
:104E500040F02D81F5A3D3E900232046294602F036
:104E60004FF8002840F02681F2A3D3E90023204622
:104E7000294602F045F8002840F01F81EFA3D3E94E
:104E800000232046294602F03BF8002840F0188114
:104E9000ECA3D3E900232046294602F031F800288C
:104EA00040F01181E9A3D3E900232046294602F00E
:104EB00027F8002840F00A81E6A3D3E90023204622
:104EC000294602F01DF8002840F00381E3A3D3E94E
:104ED00000232046294602F013F8002840F0FC8009
:104EE000E0A3D3E900232046294602F009F8002870
:104EF00040F0F580DDA3D3E900232046294601F0E8
:104F0000FFFF002840F0EE80DAA3D3E9002320461B
:104F1000294601F0F5FF002840F0E780D7A3D3E948
:104F200000232046294601F0EBFF002840F0E080F6
:104F3000D4A3D3E900232046294601F0E1FF00284D
:104F400040F0D980D1A3D3E900232046294601F0BF
:104F5000D7FF002840F0D280CEA3D3E9002320461B
:104F6000294601F0CDFF002840F0CB80CBA3D3E948
:104F700000232046294601F0C3FF002840F0C480EA
:104F8000C8A3D3E900232046294601F0B9FF002831
:104F900040F0BD80C5A3D3E900232046294601F097
:104FA000AFFF002840F0B680C2A3D3E9002320461B
:104FB000294601F0A5FF002840F0AF80BFA3D3E948
:104FC00000232046294601F09BFF002840F0A880DE
:104FD000BCA3D3E900232046294601F091FF002815
:104FE00040F0A180B9A3D3E900232046294601F06F
:104FF00087FF002840F09A80B6A3D3E9002320461B
:10500000294601F07DFF002840F09380B3A3D3E947
:1050100000232046294601F073FF002840F08C80D1
:10502000B0A3D3E900232046294601F069FF0028F8
:1050300040F08580ADA3D3E900232046294601F046
:105040005FFF00287ED1ABA3D3E900232046294689
:1050500001F056FF002878D1A8A3D3E90023204609
:10506000294601F04DFF002872D1A6A3D3E9002301
:105070002046294601F044FF00286CD1A3A3D3E9C0
:1050800000232046294601F03BFF002866D167E057
:105090009FED378A64E09FED378A61E09FED368AA5
:1050A0005EE09FED368A5BE09FED358A58E09FED2C
:1050B000358A55E09FED348A52E09FED348A4FE007
:1050C0009FED338A4CE09FED338A49E09FED328AB1
:1050D00046E09FED328A43E09FED318A40E09FED4C
:1050E000318A3DE09FED308A3AE09FED308A37E02B
:1050F0009FED2F8A34E09FED2F8A31E09FED2E8ABD
:105100002EE09FED2E8A2BE09FED2D8A28E09FED6B
:105110002D8A25E09FED2C8A22E09FED2C8A1FE04E
:105120009FED2B8A1CE09FED2B8A19E09FED2A8AC8
:1051300016E09FED2A8A13E09FED298A10E09FED8B
:10514000298A0DE09FED288A0AE09FED288A07E072
:105150009FED278A04E09FED278A01E09FED268AD4
:10516000B0EE480ABDEC028B38BD00BFAFF3008043
:1051700013D0024217D5124241901B42379D2E4256
:105180006BFF434200A74F42F614694213D082429C
:1051900017D5924241909B42379DAE426BFFC3426E
:1051A00000A7CF42F614E94213D0024317D51243A9
:1051B00041901B43379D2E436BFF434300A74F4352
:1051C000F614694313D0824317D5924341909B4311
:1051D000379DAE436BFFC34300A7CF43F614E943AB
:1051E00013D0024417D5124441901B44379D2E44DE
:1051F0006BFF434400A74F44F6146944BD35B055D6
:10520000025A4040CA15DEE5A25A4240F0332E1C35
:1052100008724340751F80D4A6D3454015527E5274
:10522000ED7F484076711B0DE0F449404A46CEC2FE
:105230009E224D40BD35B055025A5040CA15DEE59C
:10524000A25A5240F0332E1C08725340751F80D46E
:10525000A6D3554015527E52ED7F584076711B0DF6
:10526000E0F459404A46CEC29E225D40BD35B0555D
:10527000025A6040CA15DEE5A25A6240F0332E1C85
:1052800008726340751F80D4A6D3654015527E52C4
:10529000ED7F684076711B0DE0F469404A46CEC24E
:1052A0009E226D40BD35B055025A7040CA15DEE5EC
:1052B000A25A7240F0332E1C08727340751F80D4BE
:1052C000A6D3754015527E52ED7F784076711B0D46
:1052D000E0F479404A46CEC29E227D40BD35B055AD
:1052E000025A8040CA15DEE5A25A8240F0332E1CD5
:1052F00008728340751F80D4A6D3854015527E5214
:10530000ED7F884076711B0DE0F489404A46CEC29D
:105310009E228D40000000002DE9F84F2DED048BFA
:105320000022D54B1A604EE0D44BB3F9003000EEAA
:10533000103AB8EEC00ADFEDD27A20EE270AFFF766
:1053400043FDD04B83ED000ACF4AD04B1A60D04BBF
:10535000D3ED007A9FEDCF7A67EE877A20EE270AA9
:10536000CD4B83ED000A0121CC48FBF7A3FE0128B9
:1053700008D1C94BD3ED007AB6EE007A67EE877A92
:10538000C3ED007AC64BD3ED007AC34A92ED007AA2
:1053900077EE877AC3ED007ABC4B93ED007AF4EE9A
:1053A000C77AF1EE10FA04DDB1EE477ABC4B83ED1B
:1053B000007AB1490B68BB4A02EB8302B848006827
:1053C000106001330B60AC4B1B68B3F5806FABD33F
:1053D0000022A94B1A608BE1B34BB3F9003008EE01
:1053E000103AB8EEC88ADFEDB17A28EE278A28EEA7
:1053F000088A28EE088A28EE088A0121A748FBF7C8
:1054000059FE012815D118EE100A01F0B3FA002256
:10541000A74B01F003FB04460D46A64B186801F0AC
:10542000A9FA22462B4601F023FC01F091FDA24B84
:105430001860914B1D68A04CD4ED007A68EE277A75
:10544000934B93ED007A67EE877A17EE900A01F09E
:1054500091FA7FA3D3E9002301F0E0FA01F078FD8F
:1054600000EE100AFEF78EF9944B03EB850383EDF3
:10547000000AD4ED008A18EE900A01F07BFA044687
:105480000D468C4B93ED009A19EE100A01F072FA5A
:1054900082468B4670A3D3E9002301F0BFFA804611
:1054A000894618EE100A01F065FA06460F460246D4
:1054B0000B464046494601F0DBFB02460B462046C0
:1054C000294601F01DFD10B37D4C01224FF480519F
:1054D0002046FBF701FE00224FF400512046FBF767
:1054E000FBFD00224FF480412046FBF7F5FD002232
:1054F0004FF400412046FBF7EFFD6F4BD3ED007AF0
:10550000B7EE007A77EE877AC3ED007AECE054A329
:10551000D3E900235046594601F080FA32463B4613
:1055200001F0A6FB02460B462046294601F0E8FCA6
:1055300010B3634C00224FF480512046FBF7CCFDA2
:1055400001224FF400512046FBF7C6FD00224FF424
:1055500080412046FBF7C0FD00224FF40041204669
:10556000FBF7BAFD544BD3ED007AB7EE007A77EE35
:10557000877AC3ED007AB7E03BA3D3E90023504616
:10558000594601F04BFA32463B4601F071FB0246A8
:105590000B462046294601F0B3FC10B3484C0022CC
:1055A0004FF480512046FBF797FD00224FF4005145
:1055B0002046FBF791FD01224FF480412046FBF786
:1055C0008BFD00224FF400412046FBF785FD3A4B4E
:1055D000D3ED007AB7EE007A77EE877AC3ED007AE2
:1055E00082E023A3D3E900235046594601F016FA7E
:1055F00032463B4601F03CFB02460B46204629461C
:1056000001F07EFC00285DD02D4C00224FF480512B
:105610002046FBF761FD00224FF400512046FBF7C6
:105620005BFD00224FF480412046FBF755FD01222F
:105630004FF400412046FBF74FFD1F4BD3ED007A9E
:10564000B7EE007A77EE877AC3ED007A4CE000BFC0
:1056500044174154FB2119409A9999999999C93F46
:105660009A9999999999D93F333333333333E33F37
:105670009A9999999999E93F98550020C2E5002097
:105680000000003DF00400200AD7233CFC04002069
:10569000D01501200AD7A33C0405002000000240D9
:1056A000F804002094450020D41501200000003AA1
:1056B00000001040C815012000050020C805012089
:1056C000000C0240C9EE087AF4EEE78AF1EE10FA17
:1056D00007D5F7EE007A78EEA78A0E4BC3ED008A65
:1056E00002E000220B4B1A600B4A1368013313606F
:1056F000094B1B68B3F5806FFFF46EAE07484FF49B
:10570000806302460649FEF7C1F8BDEC048BBDE894
:10571000F88F00BF00050020985500209445002018
:10572000C80501202DE9F04F87B0BD4CBD4B23606B
:10573000BD4ABE4B1A60BE49BE4801F06BFEBE4D6D
:10574000286000220023BD4901F06CFE286801F0AA
:10575000A7FCFAF7BDFFFFF7D9F9D4ED007AFDEE0B
:10576000E77A17EE902A502140F2033000F0ECFD6A
:10577000032000F0D7FE012000F0AEFE4FF480526F
:10578000AF49B04800F03AFEAF4B187800F09AFEEF
:10579000FAF75CFFFAF79CFF4FF00008CDF80480A1
:1057A000AA4D2B6B43F001032B632B6B03F001031A
:1057B0000193019BA64C01262660C4F80480C4F81E
:1057C00008802146A348FBF7DDFACDF808802B6B53
:1057D00043F008032B632B6B03F008030293029B37
:1057E0004FF4805BC4F800B06660A6604FF0030918
:1057F000C4F80C90984F21463846FBF7C3FACDF811
:105800000C802B6B43F008032B632B6B03F0080316
:105810000393039B4FF4005AC4F800A06660A6608F
:10582000C4F80C9021463846FBF7ACFACDF810804E
:105830002B6B43F008032B632B6B03F008030493DB
:10584000049B4FF4804323606660A660C4F80C900C
:1058500021463846FBF796FACDF814802B6B43F0BF
:1058600008032B632B6B03F008030593059B4FF490
:10587000004525606660A660C4F80C902146384655
:10588000FBF780FA324659463846FBF725FC32468C
:1058900051463846FBF720FC32464FF480413846EB
:1058A000FBF71AFC324629463846FBF715FC424600
:1058B00059463846FBF710FC424651463846FBF73E
:1058C0000BFC42464FF480413846FBF705FC42464C
:1058D00029463846FBF700FCFFF734F95F4B1B788D
:1058E000DBB2012B40F083800020FFF7A1F9FFF726
:1058F00013FD0220FFF7EAF90023594A1360594AC1
:105900001360594A13602DE013F0010F13D0554D69
:105910002C684B4A32F9130001F01AF80022534B5D
:1059200001F07CF801F014FB514B03EB8403186089
:1059300001342C6012E04C4D2C68414A32F91300BE
:1059400001F006F80022494B01F068F801F000FB75
:10595000484B03EB8403186001342C60404A136801
:10596000013313603E4B1B68B3F5006FCCD30023AB
:105970003B4A13603B4A13603B4A13602FE013F02D
:10598000010F14D0374801683B4A02EB8102D2ED87
:10599000007A9FED3A7A67EE877AFDEEE77A17EEA6
:1059A000902A284C24F813200131016013E02E487E
:1059B0000168334A02EB8102D2ED007A9FED2F7A23
:1059C00067EE877AFDEEE77A17EE902A1D4C24F8F1
:1059D000132001310160224A136801331360204B08
:1059E0001B68B3F5006FCAD300221C4B1A701B4B07
:1059F0001B78DBB2022B40F0BA800020FFF718F9C9
:105A0000FFF78AFC0220FFF761F94FF40062144BA4
:105A10001A600023134A1360134A136060E000BF4A
:105A2000C81501200000FA456F120339D015012076
:105A3000FCCF0008C8CF0008DC150120E8CF000823
:105A4000A0850020B4C50020AC0000200038024032
:105A5000A0C5002000000240000C0240F404002019
:105A60009855002090450020E01501200000F03EF0
:105A7000901500209C650020A075002000000047C4
:105A8000C4F5002013F0010F13D03A4D2C683A4AA8
:105A900032F9130000F05CFF0022384B00F0BEFF2B
:105AA00001F056FA364B03EB8403186001342C6086
:105AB00012E0344D2C68304A32F9130000F048FFF0
:105AC00000222E4B00F0AAFF01F042FA2E4B03EB0E
:105AD0008403186001342C602C4A1368013313606E
