:020000040800F2
:1000000000000220B9020008294C00082D4C00080D
:10001000314C0008354C0008394C00080000000045
:100020000000000000000000000000003D4C00083F
:10003000414C000800000000454C0008494C0008F5
:10004000E9030008E9030008E9030008E9030008E0
:10005000E9030008E9030008FD4B0008E903000874
:10006000E9030008E9030008E9030008094C000857
:10007000E9030008E9030008E9030008E9030008B0
:10008000194C0008E9030008E9030008E903000827
:10009000E9030008E9030008E9030008E903000890
:1000A000E9030008E9030008E9030008E903000880
:1000B000E9030008E9030008E9030008E903000870
:1000C000E9030008E9030008E9030008E903000860
:1000D000E9030008E9030008E9030008E903000850
:1000E000E9030008E9030008E9030008E903000840
:1000F000E9030008E9030008E9030008E903000830
:10010000E9030008E9030008E9030008E90300081F
:10011000E9030008E90300089D2E0008E903000830
:10012000E9030008E9030008E9030008E9030008FF
:10013000E9030008E9030008E9030008E9030008EF
:10014000E9030008E9030008E9030008E9030008DF
:10015000E9030008E9030008E9030008E9030008CF
:10016000E9030008E9030008E9030008E9030008BF
:10017000E9030008E9030008E903000800000000A3
:10018000E9030008E903000800B583B003F078F93B
:10019000384B394A1360394A136039490CE00A6810
:1001A0004B6801F10C04886803E01168196004339E
:1001B00004329842F9D82146324B9942EFD32E4B64
:1001C0001A68314B9A4204D12C4B1A682F4B9A4231
:1001D00000D0FEE7274B2E4A13602E4A13602E4BA9
:1001E0000AE0194651F8082B5B6802E00020106015
:1001F00004329A42FAD30B46284A9342F1D3244B55
:100200001B6813B9234B1B6803B1FEE704F02AFBFC
:10021000694601A802F014FF214C224B1C1BA410BC
:10022000002504E01E4B53F8253098470135AC42B9
:10023000F8DC1D4C1D4B1C1BA410002504E01A4BC0
:1002400053F8253098470135AC42F8DC0099019805
:1002500004F038FB0546164C164B1C1BA41004E09A
:10026000013C134B53F824309847002CF8DC284607
:1002700002F082FEBABADECA00000020E0020020CE
:10028000EC030008040400087856341232547698BF
:10029000E4020020004700200404000814040008C1
:1002A00014040008140400081404000814040008CE
:1002B000140400081404000808B5FFF765FF00BF28
:1002C00000BEFEE71EF0040F0CBFEFF30880EFF353
:1002D00009807146414A10472DE9F04182B0044639
:1002E0008846134B5E6B9F6B9D6A1B6B13F0020F6E
:1002F0000DD00F4BDB6A002B09DA4BF6AB6103F034
:1003000045F920B14FF00042094BDA620CE0094890
:1003100003F052F8CDF800803B463246294620468D
:1003200003F0BCF800BEFEE702B0BDE8F08100BFFC
:1003300000ED00E044B0000800BEFEE71EF0040F30
:100340000CBFEFF30880EFF309807146244A104791
:100350002DE9F04182B004468846084B5E6B9F6BE6
:100360009D6A074803F028F8CDF800803B463246E6
:100370002946204603F092F800BEFEE700ED00E0BB
:1003800054B000081EF0040F0CBFEFF30880EFF329
:1003900009807146134A10472DE9F04182B00446A6
:1003A0008846084B5E6B9F6B9D6A074803F004F814
:1003B000CDF800803B4632462946204603F06EF8D1
:1003C00000BEFEE700ED00E060B0000800BEFEE702
:1003D00000BEFEE700BEFEE770470000D90200083D
:0C03E000510300089903000800BEFEE76E
:1003EC0038B7000800000020E402002038B70008ED
:1003FC000000001000000010E40200200447002060
:08040C000000001000000010C8
:1004200000B589B000210191114B5A6C42F4805201
:100430005A645A6C02F480520192019A02911A6B2A
:1004400042F001021A631B6B03F001030293029B4B
:10045000E0230393022304930593012306930523CA
:10046000079303A9034800F0B5FC09B05DF804FB4D
:10047000003802400000024010B50F4802F09EFA1A
:10048000C8B90D4C0D4B23601823E3610023A36012
:1004900063612361A3620722E262E36023624FF497
:1004A0000072A26163624FF482736360FFF7B8FF6A
:1004B000204602F00FF810BDE80200200030014095
:1004C00008B5034802F0C8F8FFF7D6FF08BD00BF23
:1004D000E802002000B587B08DF80F0006AA0023BF
:1004E00002F8013D084B1B68009301230DF10F0139
:1004F000064802F08DF908B1FFF7E2FF9DF81700FA
:1005000007B05DF804FB00BF04000020E8020020F3
:1005100030B587B00C46054658B900230093194BF7
:100520001A6B42F001021A631B6B03F00103009384
:10053000009B64B9012301930023029303930223D8
:10054000049301A9104B53F8250000F043FC012C43
:1005500015D10123019300240394022304930B4B30
:10056000029301A9084B53F8250000F033FC224602
:100570000F21062000F024F9062000F063F907B0EF
:1005800030BD00BF003802400800002000003110DC
:1005900008B50121024B53F8200000F0B3FD08BD5F
:1005A0000800002070B586B0002100910E4B1A6B38
:1005B00042F010021A631B6B03F010030093009BC0
:1005C000082601960124029403910494074D01A981
:1005D000284600F0FFFB22463146284600F0A4FDE5
:1005E000FFF74AFF06B070BD00380240001002401D
:1005F00010B586B0002400940E4B1A6B42F0100226
:100600001A631B6B03F010030093009B02230193FA
:10061000094A02920493039401A9084800F0DAFB06
:1006200022460F21072000F0CBF8072000F00AF93E
:1006300006B010BD0038024000001110001002404A
:1006400070B505460E461446012A01D941F0400610
:10065000002208210A4800F067FD3046FFF73AFF04
:1006600005E015F8010BFFF735FF013CA4B2002CA3
:10067000F7D101220821024800F056FD70BD00BFED
:100680000010024070B505461446012A02D941F017
:10069000C00601E041F08006002208210A4800F06F
:1006A00043FD3046FFF716FF06E00020FFF712FF7C
:1006B00005F8010B013CA4B2002CF6D1012208215F
:1006C000014800F031FD70BD0010024010B5104B24
:1006D0009B6898473B280BD10E4C0D4B23601B6841
:1006E0004720984723689B6A2D209847002010BD1B
:1006F000094B9B6898473F2807D1074B054A136071
:100700001B6867209847002010BD012010BD00BF66
:10071000780000204003002044000020704700BF04
:1007200008B5094B1A6842F400721A601A6842F45C
:1007300080621A60032000F025F80F2002F05CFBB5
:10074000FFF7ECFF002008BD003C0240024A13689E
:1007500001331360704700BF14050020014B186877
:10076000704700BF1405002010B582B00190FFF75C
:10077000F5FF0446FFF7F2FF001B019B9842F9D3F7
:1007800002B010BD10B50446C31E042B03D9A4212A
:10079000094802F007FE094AD36823F4E0631B040A
:1007A0001B0C240204F4E064234343F0BF6343F4CE
:1007B0000033D36010BD00BFCCAC000800ED00E0FA
:1007C00070B505460E4614460F2A03D9BC211A48B7
:1007D00002F0E8FD0F2E03D9BD21174802F0E2FD1B
:1007E000164BDB68C3F30223C3F10701042928BFBA
:1007F00004211A1D062A01D9033B00E0002301222F
:1008000002FA01F101393140994002FA03F3013B48
:100810001C400C43002D06DA05F00F052401E4B25C
:10082000074B5C5570BD2401E4B205F1604505F548
:10083000614585F8004370BDCCAC000800ED00E0D8
:1008400014ED00E010B5041E03DAD021064802F0D2
:10085000A9FD620904F01F04012303FA04F4034B09
:1008600043F8224010BD00BFCCAC000800E100E01E
:10087000704700BF08B5FFF7FBFF08BD30B405683F
:100880002C6824F480242C60046863608368402B07
:1008900004D103689A600368D96003E00368996033
:1008A0000368DA6030BC70470268D3B2103B0B4972
:1008B000A1FB03131B090A49C95C4165032B06D937
:1008C00022F47F7222F003020432026504E022F473
:1008D0007F7222F003020265006D7047ABAAAAAADC
:1008E00000AD0008002800F0048110B5044603683C
:1008F000814A934231D0183293422ED0183293421B
:100900002BD01832934228D01832934225D0183277
:10091000934222D0183293421FD0183293421CD0F7
:1009200002F55672934218D01832934215D01832FD
:10093000934212D0183293420FD0183293420CD007
:100940001832934209D01832934206D0183293429B
:1009500003D0C521694802F025FD6368C3B1B3F136
:10096000007F15D0B3F1806F12D0B3F1C06F0FD0FC
:10097000B3F1006F0CD0B3F1206F09D0B3F1406F29
:1009800006D0B3F1606F03D0C6215C4802F00AFDC7
:10099000A3683BB1402B05D0802B03D0C72157481B
:1009A00002F000FDE368B3F5007F04D01BB1C8215D
:1009B000524802F0F7FC2369B3F5806F04D01BB1F5
:1009C000C9214E4802F0EEFC63694BB1B3F5006FEC
:1009D00006D0B3F5805F03D0CA21484802F0E2FC9C
:1009E000A3694BB1B3F5005F06D0B3F5804F03D0D8
:1009F000CB21424802F0D6FCE36943B1B3F5807FD6
:100A000005D0202B03D0CC213C4802F0CBFC236A3C
:100A100063B1B3F5803F09D0B3F5003F06D0B3F51D
:100A2000403F03D0CD21354802F0BCFC636A2BB1B6
:100A3000042B03D0CE21314802F0B4FC636A23B307
:100A4000A36A032B03D9D3212C4802F0ABFCE36A41
:100A500063B1B3F5000F09D0B3F1807F06D0B3F1D5
:100A6000C07F03D0D421254802F09CFC236B63B1E6
:100A7000B3F5001F09D0B3F5800F06D0B3F5C00F52
:100A800003D0D5211D4802F08DFC022384F83530B7
:100A9000206803681A4919406268A3681A43E3682A
:100AA0001A4323691A4363691A43A3691A43E36922
:100AB0001343226A1A4341EA0203626A042A03D1F9
:100AC000E16A226B0A43134303602268536923F0EF
:100AD0000703616A0B43042901D1A16A0B435361E7
:100AE0002046FFF7E1FE0020E064012384F8353062
:100AF00010BD0120704700BF1060024008AD000823
:100B00003F8010F030B338B5044690F83530DBB292
:100B1000022B21D00268136823F0010313600368DD
:100B200000251D6003685D6003689D600368DD60EB
:100B300003681D61036821225A61FFF7B5FE626DEB
:100B40003F2393408360E56484F8355084F8345043
:100B5000284638BD01207047012038BDF8B590F80F
:100B60003440012C2FD01D4616460F460446012363
:100B700080F83430022380F835306A1E4FF6FE7359
:100B80009A4204D940F29911104802F00BFC2068F7
:100B9000036823F0010303602B46324639462046A2
:100BA000FFF76CFE2268136843F01E03136022688F
:100BB000536943F0800353612268136843F00103D3
:100BC00013600020F8BD0220F8BD00BF08AD00088A
:100BD00038B504460268136823F001031360FFF779
:100BE000BDFD054610E0FFF7B9FD401BB0F57A7F6B
:100BF0000AD9E36C43F02003E364002384F8343023
:100C0000032084F8350038BD23681B6813F0010FFA
:100C1000E9D1002084F83400012384F8353038BD50
:100C200038B50446056D2A68416D08238B401A4289
:100C300019D003681A6812F0040F14D01A6822F051
:100C400004021A60426D08239340AB60C36C43F00A
:100C50000103C364042380F83530002380F8343066
:100C6000836C03B198472A68616D584B8B401A42D8
:100C70001AD023685A6912F0800F15D05A6922F0F1
:100C800080025A61626D514B9340AB60E36C43F05C
:100C90000203E364042384F83530002384F83430FD
:100CA000A36C0BB1204698472A68616D484B8B4076
:100CB0001A421AD023681A6812F0020F15D01A6867
:100CC00022F002021A60626D414B9340AB60E36C0C
:100CD00043F00403E364042384F83530002384F8EC
:100CE0003430A36C0BB1204698472A68616D1023FD
:100CF0008B401A422DD02268116811F0080F28D0BD
:100D0000116811F4802F11D0AB6023681A6812F4B7
:100D1000002F03D1312384F8353016E01B6813F41B
:100D2000002F12D0412384F835300EE0136813F4FD
:100D3000807F03D1136823F008031360626D1023D2
:100D40009340AB60312384F83530236C0BB12046DF
:100D500098472A68616D20238B401A4234D022685C
:100D6000116811F0100F2FD0116811F4802F13D0DB
:100D7000AB6023681A6812F4002F04D1636C1BB3B4
:100D80002046984738BD1B6813F4002F1CD0E36B36
:100D9000D3B12046984738BD136813F4807F03D140
:100DA000136823F010031360626D20239340AB603F
:100DB000E36CE364112384F83530002384F8343085
:100DC000E36B0BB12046984738BD00BF010080009F
:100DD000040080002DE9F04782B080460F46A44B06
:100DE000984223D003F5806398421FD003F58063B7
:100DF00098421BD003F58063984217D003F58063B7
:100E0000984213D003F5806398420FD003F58063B6
:100E100098420BD003F58063984207D003F58063B6
:100E2000984203D0C521934802F0BCFA3B881BB915
:100E3000C621904802F0B6FA7B68012B22D9112B0B
:100E400020D0022B1ED0122B1CD08B4A934219D0DB
:100E500002F58012934215D002F58012934211D010
:100E6000A2F5F81293420DD002F58012934209D0F8
:100E700002F58012934205D0032B03D0C7217D4891
:100E800002F090FABB68022B03D9C821794802F01E
:100E900089FA00252CE10124AC403E682640B4428A
:100EA00040F025817B68022B01D0122B4AD13B698F
:100EB000C3B3092B36D0ABB3A3B39BB393B3012B0E
:100EC00030D02FD0022B2DD02CD02BD0032B29D0DB
:100ED000042B27D026D025D0052B23D022D0092BB8
:100EE00020D0062B1ED0092B1CD0072B1AD019D0CE
:100EF00018D0082B16D015D014D0092B12D011D031
:100F00000A2B0FD00ED00B2B0CD00C2B0AD009D0F3
:100F10000D2B07D00C2B05D00F2B03D0D921554812
:100F200002F040FAEA08083258F8220005F00703F8
:100F300099000F238B4020EA03003B698B40034359
:100F400048F82230D8F800304FEA450A4FF003093C
:100F500009FA0AF96FEA090903EA09027B6803F052
:100F6000030303FA0AF31343C8F800307B685A1EE0
:100F7000012A03D9112B01D0122B1BD1FB68032BA3
:100F800003D9EC213B4802F00DFAD8F8083009EA01
:100F90000302FB6803FA0AF31343C8F80830D8F8D1
:100FA000043023EA04047B68C3F30013AB401C4302
:100FB000C8F80440D8F80C3009EA0309BB6803FA02
:100FC0000AF349EA0303C8F80C307B6813F0805F2A
:100FD00000F08D8000230193284B5A6C42F480422C
:100FE0005A645B6C03F480430193019BA9088A1C3B
:100FF000234B53F8220005F003039B000F229A4075
:1010000020EA02001A4A904521D002F580629045FC
:101010001FD002F5806290451DD002F58062904598
:101020001BD002F58062904519D002F58062904590
:1010300017D002F58062904515D002F58062904588
:1010400013D002F5806290451CD108221BE00022DB
:1010500019E0012217E0022215E0032213E0042226
:1010600011E005220FE006220DE007220BE000BF91
:101070000000024038AD00080000111000380240A6
:1010800000380140092202FA03F3034302311B4AEC
:1010900042F821301A4B1A68F34302EA03017868D8
:1010A00010F4803F01D046EA0201154A11605268EF
:1010B00003EA0201786810F4003F01D046EA020119
:1010C0000F4A5160926803EA0201786810F4801FA9
:1010D00001D046EA02010A4A9160D2681340796859
:1010E00011F4001F01D046EA0203054AD36001351E
:1010F0000F2D7FF6D0AE02B0BDE8F087003801407A
:10110000003C014038B505460C4621B94FF4C87182
:10111000044802F047F92B691C4201D0012038BD78
:10112000002038BD38AD000870B5064615460C469F
:1011300021B940F2B111084802F034F9012D04D967
:101140004FF4D971044802F02DF90DB1B46170BDAE
:101150002404B46170BD00BF38AD000808B5044B6D
:101160005B69034203D0024B586103F05BFE08BD8C
:10117000003C0140704700BF704700BF08B5806B5E
:10118000FFF7FAFF08BD00BF704700BF08B5806BCE
:1011900004F052FA08BD00BF08B5806B00234385F8
:1011A0004386012380F83D30036C43F02003036441
:1011B00004F04EFA08BD00BF90F83D00704700BF34
:1011C00008B5836B0268126812F4807F3CD11A6AFA
:1011D000012A05D019684A6822F002024A6022E01A
:1011E0001A68D16901F44071B1F5007F03D0D1696B
:1011F00011F4407F04D1516821F00201516012E0E6
:1012000013498A4202D1A1F5806101E04FF04021EB
:101210000F48824201D10F4A01E04FF0402252684C
:1012200022F002024A6000225A8593F83D20D2B291
:10123000322A06D15A8E92B232B9012283F83D2069
:1012400002E0012283F83D201846FFF79DFF08BD0C
:10125000003800400034004008B5836B0268126813
:1012600012F4807F3BD11A6A012A05D019684A68B6
:1012700022F001024A6021E01A68D16901F440714C
:10128000B1F5007F03D0D16911F4407F12D1164926
:101290008A4201D1154801E04FF0402012498A42AC
:1012A00001D1124A01E04FF04022526822F00102BF
:1012B000426003E0516821F00101516000225A862A
:1012C00093F83D20D2B2322A06D15A8D92B232B969
:1012D000012283F83D2002E0012283F83D201846D8
:1012E00004F0A0F908BD00BF003800400034004001
:1012F000002900F0F88070B582B00D46002A00F099
:10130000F480002B00F0F38090F83D40E4B2012C13
:1013100040F0EF804162C2620168C96901F00701D3
:10132000032901D0052906D15B009BB203854385C3
:101330000386438603E0038543850386438690F84E
:101340003C30DBB2012B00F0D68016460446012368
:1013500080F83C30322380F83D3000230364836BF7
:10136000664A1A64836B664ADA63826B654B9364E0
:10137000426B65491164426B6449D163426B93646B
:101380000268D36903F44073B3F5007F01D0002BEA
:101390004CD1A06B5E4B9A4201D15E4901E04FF007
:1013A0004021238E9BB232460C31FFF7D7FB2368D6
:1013B000574A934202D1A2F5806201E04FF04022E9
:1013C00053498B4201D1534B01E04FF040235B68FE
:1013D00043F0010353602268238D9BB20C322946EF
:1013E000606BFFF7BBFB2268536843F00203536056
:1013F0002368DA6912F4806F71D1454A934202D1B1
:10140000A2F5806201E04FF0402241498B4201D1B8
:10141000404B01E04FF04023DB6943F48063D3612C
:101420002268D36943F48063D36158E0406B384B42
:101430009A4201D1374A01E04FF04022238D9BB2FE
:101440000C322946FFF78AFB2368314A934202D1C6
:10145000A2F5806201E04FF040222D498B4201D17C
:101460002C4B01E04FF040235B6843F002035360D4
:101470002168238E9BB232460C31A06BFFF76EFBC6
:101480002268536843F0010353602368DA6912F459
:10149000806F17D1DA6942F48062DA6123681C4AEE
:1014A000934201D11B4901E04FF04021184A934279
:1014B00001D1184B01E04FF04023DB6943F4806316
:1014C000CB610CE0DA6902F44072B2F5407F06D1DC
:1014D00000220192DA6801929B680193019B00202F
:1014E00084F83C0008E001207047012004E001205E
:1014F00002E0022000E0022002B070BD8D11000861
:1015000059120008991100087D110008C111000846
:10151000003800400034004090F83C30DBB2012B32
:1015200059D0012380F83C3090F83D30DBB2122BCB
:1015300005D10268536823F00203536046E090F837
:101540003D30DBB2222B05D10268536823F0010342
:1015500053603BE090F83D30DBB2322B36D143682C
:1015600013B1B3F5007F19D10268536823F0020369
:1015700053600368194A934202D1A2F5806201E0E8
:101580004FF0402215498B4201D1154B01E04FF03D
:1015900040235B6823F00103536017E0026853683F
:1015A00023F00103536003680C4A934201D10C49B4
:1015B00001E04FF04021094A934201D1084B01E07C
:1015C0004FF040235B6823F002034B60002380F858
:1015D0003C30184670470220704700BF003800407A
:1015E0000034004090F83C30DBB2012B62D0012384
:1015F00080F83C3090F83D30DBB2122B05D1026808
:10160000536843F00203536046E090F83D30DBB28C
:10161000222B05D10268536843F0010353603BE07D
:1016200090F83D30DBB2322B36D1436813B1B3F5BD
:10163000007F19D10268536843F0020353600368C6
:101640001D4A934202D1A2F5806201E04FF0402290
:1016500019498B4201D1194B01E04FF040235B68DF
:1016600043F00103536017E00268536843F001033D
:1016700053600368104A934201D1104901E04FF0D2
:1016800040210D4A934201D10C4B01E04FF0402321
:101690005B6843F002034B600368DA6912F4806F01
:1016A00003D1DA6942F48062DA61002380F83C30C9
:1016B0001846704702207047003800400034004050
:1016C00090F83C30DBB2012B64D010B5012380F8D8
:1016D0003C300268536823F0020353600268536889
:1016E00023F001035360036A012B27D103682A4AC0
:1016F000934202D1A2F5806201E04FF040222649D8
:101700008B4201D1254B01E04FF040235B6823F071
:10171000020353600368204A934202D1A2F580621B
:1017200001E04FF040221C498B4201D11B4B01E0EC
:101730004FF040235B6823F0010353600446406B85
:1017400008B1FFF745FAA06B08B1FFF741FA22682C
:10175000D36923F48063D361236A012B13D12368F7
:101760000D4A934202D1A2F5806201E04FF040227F
:1017700009498B4201D1094B01E04FF04023DB695D
:1017800023F48063D361012384F83D30002084F882
:101790003C0010BD0220704700380040003400407B
:1017A000C369012B04D10122124B1A601248704701
:1017B000124B5B6813F4800F07D0104B586800F091
:1017C0003F000F4BB3FBF0F006E00C4B586800F005
:1017D0003F000C4BB3FBF0F0084AD2F88430C3F35F
:1017E000881303FB00F3D2F88400C0F30270B3FB4C
:1017F000F0F070475C0147420080BB0000380240B7
:1018000000127A000024F400002800F00D8170B569
:101810000446436863B1B3F5807F09D0B3F5007F18
:1018200006D0B3F5407F03D0C421804801F0BAFD53
:10183000A3685BB1102B09D0202B07D0302B05D02B
:10184000B02B03D0C521794801F0ACFDE368012B32
:1018500007D9032B05D0052B03D0C621734801F00F
:10186000A1FD2369B3F5007F04D01BB1C7216F48E8
:1018700001F098FD6369A3F5FA516D4A914205D9CB
:10188000022B03D0C821694801F08CFDA3692BB15C
:10189000082B03D0C921654801F084FDE369012BC1
:1018A00003D9CA21614801F07DFD94F83D3013F061
:1018B000FF0F05D1002384F83C302046FFF75AFC87
:1018C000022284F83D202168CB6923F47B6323F056
:1018D0000F03CB6123681A622368DE696369934250
:1018E00028D0E3680BB9012500E002252046FFF768
:1018F00057FF2369B3F5007F08D1000A00EB800091
:1019000043006569B3FBF5F3053309E06D01B0FBF6
:10191000F5F000EB800043006569B3FBF5F3053398
:10192000444DA5FB0335ED0805F00103EA1A520802
:10193000180202E0002528460222931EFD2B01D941
:101940000020022221682369034313430B6262686B
:10195000A3681A43E3681A43A3691343334343F468
:1019600000632268D361236A012B04D94FF4937179
:101970002E4801F017FD236A012B4FD123682E4A10
:10198000934201D12D4901E04FF040212A4A934270
:1019900001D12A4B01E04FF04023DB6923F47B6344
:1019A00023F00F03CB612268234B9A4201D1234AD3
:1019B00001E04FF040220223136221681E4B99423E
:1019C00002D1A3F5806301E04FF04023D86962683B
:1019D000B2F5007F07D04AB1B2F5407F09D0B2F529
:1019E000807F09D107E04FF4807505E04FF48075E2
:1019F00002E0002500E00025A2681543E2682A43C2
:101A0000A3691343034343F400630B4A914202D199
:101A1000A2F5806201E04FF04022D36100202064F3
:101A2000012384F83D3070BD0120704768AD000887
:101A3000C0CE0200CDCCCCCC0038004000340040F9
:101A400030B583B0044603680F2B03D9F6219E48B6
:101A500001F0A8FC236813F0010F45D06368012B47
:101A600005D9052B03D0FB21974801F09BFC974B30
:101A70009B6803F00C03042B0AD0944B9B6803F083
:101A80000C03082B0CD1914B5B6813F4800F07D02B
:101A90008E4B1B6813F4003F26D0636823BBD5E14F
:101AA00022798B4B1A7063687BB1FEF757FE0546AF
:101AB00005E0FEF753FE401B642800F2C981834B0A
:101AC0001B6813F4003FF4D00EE0FEF747FE054616
:101AD00005E0FEF743FE401B642800F2BB817B4B10
:101AE0001B6813F4003FF4D1236813F0020F6ED08B
:101AF000E368012B04D940F22D11734801F052FC28
:101B000023691F2B04D94FF497716F4801F04AFCE9
:101B10006E4B9B6813F00C0F0AD06C4B9B6803F064
:101B20000C03082B1DD1694B5B6813F4800F18D18F
:101B3000664B1B6813F0020F03D0E368012B40F0E3
:101B40008B816248036823F0F8012269F82393FA35
:101B5000A3F3B3FA83F3DBB202FA03F30B4303609C
:101B600035E0E3680BB301225A4B1A60FEF7F6FD2D
:101B7000054605E0FEF7F2FD401B022800F26E81EB
:101B8000524B1B6813F0020FF4D05048036823F047
:101B9000F8012269F82393FAA3F3B3FA83F3DBB2D3
:101BA00002FA03F30B43036011E00022494B1A6071
:101BB000FEF7D4FD054605E0FEF7D0FD401B0228E8
:101BC00000F24E81414B1B6813F0020FF4D12368E1
:101BD00013F0080F2ED06369012B04D94FF4B771AD
:101BE000394801F0DFFB636993B101223A4B1A6077
:101BF000FEF7B4FD054605E0FEF7B0FD401B0228E8
:101C000000F23081314B5B6F13F0020FF4D011E022
:101C10000022314B1A60FEF7A1FD054605E0FEF7F4
:101C20009DFD401B022800F21F81284B5B6F13F0C3
:101C3000020FF4D1236813F0040F60D0A368012BC6
:101C400006D9052B04D04FF4CC711F4801F0AAFB34
:101C5000002301931D4B1A6C42F080521A641B6CD6
:101C600003F080530193019B1C4A136843F4807373
:101C70001360FEF773FD054605E0FEF76FFD401BA0
:101C8000022800F2F380154B1B6813F4807FF4D018
:101C9000227A134B1A70A3688BB1FEF75FFD0546DD
:101CA00007E0FEF75BFD401B41F28833984200F2EB
:101CB000DF80064B1B6F13F0020FF2D01FE0FEF720
:101CC0004DFD054616E000BFACAD000800380240EF
:101CD0000238024000004742800E47420070004038
:101CE00070380240FEF73AFD401B41F288339842BB
:101CF00000F2C080664B1B6F13F0020FF2D1A36994
:101D0000022B04D940F2CD11624801F04BFBA369CC
:101D1000002B00F0B1805E4A926802F00C02082AA3
:101D200000F0AC80022B7ED1E3693BB1B3F5800FAC
:101D300004D04FF4EB71574801F034FB236A3F2B7A
:101D400004D940F2D711534801F02CFB636A323BAF
:101D5000B3F5BF7F04D94FF4EC714E4801F022FB7C
:101D6000A36A022B0AD0042B08D0062B06D0082B1E
:101D700004D040F2D911474801F014FBE36A043B58
:101D80000B2B04D94FF4ED71424801F00BFB0022FC
:101D9000414B1A60FEF7E2FC054604E0FEF7DEFC6C
:101DA000401B02286CD83A4B1B6813F0007FF5D11A
:101DB000E169236A1943626A47F6C07393FAA3F391
:101DC000B3FA83F3DBB202FA03F31943A36A5B08A5
:101DD0005A1E4FF4403393FAA3F3B3FA83F3DBB202
:101DE00002FA03F30B43E16A4FF0706292FAA2F237
:101DF000B2FA82F2D2B201FA02F21343244A5360D9
:101E00000122254B1A60FEF7A9FC044604E0FEF708
:101E1000A5FC001B022835D81D4B1B6813F0007F62
:101E2000F5D0002031E000221B4B1A60FEF796FC33
:101E3000044604E0FEF792FC001B022824D8144B51
:101E40001B6813F0007FF5D100201EE001201CE08C
:101E500003201AE0032018E0012016E0032014E01C
:101E6000032012E0032010E003200EE003200CE02A
:101E700003200AE0032008E0002006E0012004E03F
:101E8000032002E0032000E0032003B030BD00BFC8
:101E900000380240ACAD00086000474270B504460F
:101EA0000D460368013B0E2B04D94FF40E71834895
:101EB00001F078FA072D04D940F239217F4801F06A
:101EC00071FA7F4B1B6803F00F039D4208D9EBB2F8
:101ED0007B4A1370136803F00F039D4240F0DB80D0
:101EE000236813F0020F1DD0A368A3B1802B12D07A
:101EF000902B10D0A02B0ED0B02B0CD0C02B0AD022
:101F0000D02B08D0E02B06D0F02B04D04FF4147166
:101F10006A4801F047FA6B498B6823F0F002A36826
:101F200013438B60236813F0010F64D06368032BA5
:101F300004D940F25721614801F034FA6268012A5D
:101F400005D1604B1B6813F4003F0FD1A5E0931E31
:101F5000012B05D85B4B1B6813F0007F06D19EE078
:101F6000584B1B6813F0020F00F09B8055498B689B
:101F700023F0030313438B60FEF7F0FB0646636810
:101F8000012B0FD107E0FEF7E9FB801B41F28833FC
:101F9000984200F288804B4B9B6803F00C03042BA3
:101FA000F1D128E0022B0ED106E0FEF7D7FB801B13
:101FB00041F28833984278D8424B9B6803F00C0377
:101FC000082BF2D117E0032B10D13E4B9B68FEF794
:101FD000C5FB801B41F288339842F6D967E0FEF7D3
:101FE000BDFB801B41F28833984262D8354B9B6819
:101FF00013F00C0FF3D1324B1B6803F00F039D421B
:1020000007D2EAB22E4B1A701B6803F00F039D42F1
:1020100051D1236813F0040F19D0E36883B1B3F5ED
:10202000805F0DD0B3F5A05F0AD0B3F5C05F07D0D5
:10203000B3F5E05F04D040F2B521204801F0B2F9D9
:1020400020498B6823F4E052E36813438B602368D4
:1020500013F0080F1AD0236983B1B3F5805F0DD058
:10206000B3F5A05F0AD0B3F5C05F07D0B3F5E05F6A
:1020700004D04FF42F71114801F094F9114A93687C
:1020800023F46043216943EAC10393600F2000F009
:10209000B3FE002070BD012070BD012070BD012085
:1020A00070BD012070BD032070BD032070BD0320F2
:1020B00070BD032070BD012070BD00BFACAD000835
:1020C000003C024000380240264B9B6803F00C03A2
:1020D000042B42D0082B01D02348704710B4214B69
:1020E000586800F03F005B6813F4800F11D01F4B5D
:1020F000B3FBF0F01B4B5A6847F6C0710A4091FAE7
:10210000A1F3B3FA83F3DBB222FA03F303FB00F388
:1021100011E0154BB3FBF0F0124B5A6847F6C07450
:1021200002EA040194FAA4F2B2FA82F2D2B221FADB
:1021300002F202FB00F30B4A506800F440324FF405
:10214000403090FAA0F0B0FA80F0C0B222FA00F06D
:1021500001304000B3FBF0F001E0044870475DF847
:10216000044B7047003802400024F40000127A004B
:1021700008B5FFF7A9FF094B9B6803F0F002F023B5
:1021800093FAA3F3B3FA83F3DBB222FA03F3044A1C
:10219000D35CD840034B186008BD00BF0038024034
:1021A0009CAD00080C00002008B5FFF7E1FF084BCC
:1021B0009B6803F4E0524FF4E05393FAA3F3B3FAAD
:1021C00083F3DBB222FA03F3024AD35CD84008BDA2
:1021D000003802409CAD00080F2303600B4B9A6847
:1021E00002F0030242609A6802F0F00282609A688C
:1021F00002F4E052C2609B68DB0803F4E053036121
:10220000034B1B6803F00F030B607047003802405C
:10221000003C024030B583B005460368013B062B05
:1022200004D940F21661644801F0BCF82B6813F041
:10223000010F4DD0AB68023B052B04D940F21C6165
:102240005D4801F0AFF86B68323BB3F5BF7F04D94E
:1022500040F21D61584801F0A5F80022574B1A6062
:10226000FEF77CFA044605E0FEF778FA001B022828
:1022700000F29480524B1B6813F0006FF4D16A682F
:1022800047F6C07393FAA3F3B3FA83F3DBB202FA0F
:1022900003F1AA684FF0E04393FAA3F3B3FA83F390
:1022A000DBB29A4041EA0203454AC2F88430012277
:1022B000424B1A60FEF752FA044604E0FEF74EFA6B
:1022C000001B02286CD83E4B1B6813F0006FF5D042
:1022D0002B6813F0020F65D000230193384B1A6C62
:1022E00042F080521A641B6C03F080530193019BEF
:1022F000344A136843F480731360FEF72FFA0446E0
:1023000004E0FEF72BFA001B02284DD82D4B1B686A
:1023100013F4807FF5D02A4B1A6FEB68534013F407
:10232000407F43D0264A136F23F44070264901248E
:102330000C6000240C60106713F0020F0FD0FEF742
:102340000DFA044606E0FEF709FA001B41F2883355
:1023500098422DD81A4B1B6F13F0020FF3D0EB6885
:1023600003F44072B2F5407F0AD115498A6822F41D
:10237000F81223F0704323F4407313438B6004E09E
:102380000F4A936823F4F81393600D4A116FEB68BA
:10239000C3F30B030B43136700200AE0032008E09C
:1023A000032006E0002004E0032002E0002000E01B
:1023B000032003B030BD00BFDCAD00086800474219
:1023C0000038024000700040400E47420323036083
:1023D0001249D1F8842047F6C0731A4093FAA3F348
:1023E000B3FA83F3DBB222FA03F34360D1F884300B
:1023F00003F0E0424FF0E04393FAA3F3B3FA83F320
:10240000DBB222FA03F383608B6803F4F8120B6FDC
:1024100003F440731343C360704700BF00380240A9
:10242000F8B505460F4616461C4636E0B4F1FF3FA8
:1024300033D02CB1FEF792F9069BC01A84422CD8F7
:102440002A68536823F0E00353606B68B3F5827F1A
:102450000BD1AB68B3F5004F02D0B3F5806F04D158
:102460002A68136823F040031360AB6AB3F5005F7A
:102470000BD12A68136823F400531B041B0C136050
:102480002A68136843F400531360012385F8513020
:10249000002385F850300320F8BD2B689B683B4033
:1024A000B342C3D10020F8BD10B582B004460092FB
:1024B0000B4600228021FFF7B3FF034620B1636D76
:1024C00043F0200363650323184602B010BD00BF2C
:1024D000704700BF002800F0B78010B504460368BD
:1024E0005A4A93420CD0A2F57842934208D002F5A2
:1024F0008062934204D04FF48671554800F052FF39
:1025000063683BB1B3F5827F04D040F20D115048AF
:1025100000F048FFA36853B1B3F5806F07D0B3F55F
:10252000004F04D04FF48771494800F03BFFE36847
:10253000B3F5006F05D023B140F20F11444800F00D
:1025400031FFA369B3F5007F08D03BB1B3F5802F0D
:1025500004D04FF488713E4800F024FFE36993B142
:10256000082B10D0102B0ED0182B0CD0202B0AD0FB
:10257000282B08D0302B06D0382B04D040F2111174
:10258000334800F00FFF236A33B1802B04D04FF49F
:1025900089712F4800F006FF636A33B1102B04D015
:1025A00040F213112A4800F0FDFE636A83B92369E3
:1025B00033B1022B04D04FF48B71254800F0F2FEAA
:1025C0006369012B04D940F21711214800F0EAFE9B
:1025D0000023A36294F8513013F0FF0F05D10023BC
:1025E00084F850302046FFF773FF022384F85130FF
:1025F0002268136823F04003136021686268A368AF
:102600001A43E3681A4323691A4363691A43A369A7
:1026100003F400731343E2691343226A1343A26A6B
:102620001A430A602168638B03F00402636A134350
:102630004B602268D36923F40063D3610020606596
:10264000012384F8513010BD012070470030014053
:1026500010AE0008704700BF20B310B504460368F1
:10266000114A93420CD0A2F57842934208D002F569
:102670008062934204D04FF4AF710C4800F092FE98
:10268000022384F851302268136823F0400313605A
:102690002046FFF7DFFF0020606584F8510084F8D2
:1026A000500010BD012070470030014010AE0008FE
:1026B0002DE9F04182B004460E4617461D46836858
:1026C0003BB1B3F5004F04D04FF4E2714F4800F036
:1026D00069FE94F85030012B00F09480012384F8B7
:1026E0005030FEF73BF8804694F85130DBB2012BB6
:1026F00072D1002E72D0002F72D0032384F8513093
:10270000002363652663A786E786A363A387E38721
:1027100063642364A368B3F5004F04D1226813688F
:1027200043F48043136023681A6812F0400F03D10A
:102730001A6842F040021A60E368B3F5006F31D1C5
:1027400016E023689A6812F0020F06D036F8022BC2
:10275000DA60E38E013BE3860AE0002D42D0B5F15A
:10276000FF3F05D0FDF7FAFFC8EB000085423BD9DB
:10277000E38E002BE5D118E023689A6812F0020F6F
:1027800006D016F8012B1A73E38E013BE38609E0AD
:1027900065B3B5F1FF3F05D0FDF7E0FFC8EB0000E2
:1027A000854225D9E38E002BE6D1424629462046B4
:1027B000FFF77AFE18B1636D43F020036365A368E9
:1027C00033B901932368DA6801929B680193019BF6
:1027D000636D7BB900200EE002200CE001200AE0CE
:1027E000012008E0032006E0032004E0032002E0CB
:1027F000032000E00120012384F85130002384F8F5
:10280000503000E0022002B0BDE8F08110AE0008B8
:102810002DE9F84304460E4617469846089D8368FE
:1028200023B14FF44A71644800F0BCFD94F8503075
:10283000012B00F0BE80012384F85030FDF78EFF9D
:10284000814694F85130DBB2012B0ED06368B3F5AA
:10285000827F40F09580A368002B40F0938094F82D
:102860005130DBB2042B40F08F80002E00F08E80C0
:10287000002F00F08D80B8F1000F00F08B8094F8ED
:102880005130DBB2012B02D1052384F851300023F3
:102890006365A763A4F83E80A4F83C802663A4F88F
:1028A0003680A4F834802364636423681A6812F0C5
:1028B000400F03D11A6842F040021A60E368B3F592
:1028C000006F4BD121E053B123689A6812F0020FD8
:1028D00005D036F8022BDA60E38E013BE386E38F06
:1028E00053B123689A6812F0010F05D0DB6827F80E
:1028F000023BE38F013BE387B5F1FF3F05D0FDF7D6
:102900002DFFC9EB0000854246D9E38E002BDAD1BA
:10291000E28F002AD7D127E053B123689A6812F0DA
:10292000020F05D032781A73E38E013BE38601363D
:10293000E38F53B123689A6812F0010F05D0DB686A
:102940003B70E38F013BE3870137B5F1FF3F05D0D3
:10295000FDF704FFC9EB000085421FD9E38E002B71
:10296000DAD1E28F002AD7D14A4629462046FFF71E
:102970009BFDA8B1636D43F020036365012010E067
:1029800002200EE002200CE002200AE0012008E014
:10299000012006E0012004E0032002E0032000E023
:1029A0000020012384F85130002384F85030BDE822
:1029B000F8830220BDE8F88310AE000890F85100BB
:1029C000704700BF704700BF10B504460368234A34
:1029D000934237D0B3F1804F34D0A2F57C4293427A
:1029E00030D002F5806293422CD002F5806293428F
:1029F00028D002F58062934224D002F5806293428F
:102A000020D002F5704293421CD002F570529342DE
:102A100018D002F58062934214D002F5806293428E
:102A200010D0A2F5983293420CD002F58062934206
:102A300008D002F58062934204D04FF4B271084886
:102A400000F0B0FC2268D36843F00103D360226831
:102A5000136843F001031360002010BD0000014023
:102A600040AE0008704700BF704700BF704700BF0E
:102A7000704700BF10B5044603681A6912F0020FD0
:102A800017D0DA6812F0020F13D06FF002021A6149
:102A90000123037603689B6913F0030F02D0FFF74D
:102AA000E3FF04E0FFF7DEFF2046FFF7DFFF002330
:102AB000237623681A6912F0040F19D0DA6812F02D
:102AC000040F15D06FF004021A61022323762368E5
:102AD0009B6913F4407F03D02046FFF7C5FF05E054
:102AE0002046FFF7BFFF2046FFF7C0FF00232376F5
:102AF00023681A6912F0080F19D0DA6812F0080F6B
:102B000015D06FF008021A61042323762368DB696D
:102B100013F0030F03D02046FFF7A6FF05E0204681
:102B2000FFF7A0FF2046FFF7A1FF002323762368CD
:102B30001A6912F0100F19D0DA6812F0100F15D0C0
:102B40006FF010021A61082323762368DB6913F4FF
:102B5000407F03D02046FFF787FF05E02046FFF7C0
:102B600081FF2046FFF782FF0023237623681A693E
:102B700012F0010F09D0DA6812F0010F05D06FF0E2
:102B800001021A61204600F085F923681A6912F0E3
:102B9000800F09D0DA6812F0800F05D06FF0800244
:102BA0001A61204600F026F923681A6912F0400FD6
:102BB00009D0DA6812F0400F05D06FF040021A61B8
:102BC0002046FFF755FF23681A6912F0200F09D03D
:102BD000DA6812F0200F05D06FF020021A6120464B
:102BE00000F006F910BD00BF0368454A904214D0BA
:102BF000B0F1804F13D0A2F57C42904211D002F583
:102C0000806290420FD002F5806290420DD002F5B2
:102C1000784290420BD101220AE0012208E0012211
:102C200006E0012204E0012202E0012200E000228D
:102C30001AB123F070034A681343314A90422CD0F2
:102C4000B0F1804F2BD0A2F57C42904229D002F502
:102C50008062904227D002F58062904225D002F532
:102C60007842904223D002F57052904221D002F572
:102C7000806290421FD002F5806290421DD0A2F582
:102C8000983290421BD002F58062904219D002F532
:102C90008062904217D1012216E0012214E0012245
:102CA00012E0012210E001220EE001220CE00122DC
:102CB0000AE0012208E0012206E0012204E00122EC
:102CC00002E0012200E000221AB123F44073CA6836
:102CD000134303608B68C3620B688362084B98429E
:102CE00005D003F58063984203D1012302E001235C
:102CF00000E000230BB10B690363012343617047BC
:102D00000000014000286DD010B504460368364A23
:102D1000934236D0B3F1804F33D0A2F57C42934238
:102D20002FD002F5806293422BD002F5806293424D
:102D300027D002F58062934223D002F5806293424D
:102D40001FD002F5704293421BD002F5705293429D
:102D500017D002F58062934213D002F5806293424D
:102D60000FD0A2F5983293420BD002F580629342C5
:102D700007D002F58062934203D0D9211B4800F0AE
:102D800011FBA3685BB1102B09D0202B07D0402B7F
:102D900005D0602B03D0DA21144800F003FB23692F
:102DA0004BB1B3F5807F06D0B3F5007F03D0DB21B4
:102DB0000E4800F0F7FA94F8393013F0FF0F05D100
:102DC000002384F838302046FFF7FCFD022384F806
:102DD0003930211D2068FFF707FF012384F83930BF
:102DE000002010BD012070470000014040AE0008E7
:102DF000704700BF704700BF00B589B00022014690
:102E00003620FDF7DDFC3620FDF71CFD0023019385
:102E1000174B1A6C42F010021A641B6C03F010037B
:102E20000193019B02A903A8FFF7D6F9069B13B9EA
:102E3000FFF7BAF902E0FFF7B7F940000D4BA3FB2B
:102E400000239B0C013B0C480C4A026040F2E73225
:102E5000C2604360002303618360FFF753FF18B92A
:102E60000548FFF7B1FD00E0012009B05DF804FB63
:102E70000038024083DE1B4318050020001000408C
:102E8000034B1A68D36823F00103D360704700BF77
:102E90001805002008B5FDF759FC08BD08B5024823
:102EA000FFF7E8FD08BD00BF1805002008B503487E
:102EB00000F09AFA012000F05FF800BF70AE000841
:102EC00008B50D4B1B6813B90C4A0B4B1A600A4B23
:102ED0001A68C31C23F00303134409498B4206D923
:102EE00002F016FC0C2303604FF0FF3008BD0249CE
:102EF0000B60104608BD00BF4403002004470020BB
:102F000000FC012030B50025132420462946ABBE25
:102F10000446204630BD00BF38B5044602F0F8FB39
:102F20000546FFF7EFFF2860204638BDB0F1FF3FB0
:102F300003D108B5FFF7F0FF08BD704710B5044690
:102F40000B4B186818B1836B0BB902F027FC132CDC
:102F500009D8084B53F83430B3F1FF3F05D005488A
:102F600000EBC40010BD002010BD002010BD00BF4C
:102F700070010020CC03002000B508B9044D00E02A
:102F8000044D182420462946ABBE0446FEE700BF88
:102F900026000200230002002DE9F04184B0234FF7
:102FA00001970326039600230293012401AD2046D6
:102FB0002946ABBE80461E4BC3F80080019703969E
:102FC0000423029320462946ABBE8046194BC3F822
:102FD0000080019703960823029320462946ABBE42
:102FE0000446154B1C60B4F1FF3F03D1114B1A6826
:102FF000114B1A60002305E04FF0FF310F4A42F8F1
:1030000033100133132BF7DD0C4B094A12681A6099
:1030100000225A60074909689960DA600649096820
:1030200019615A6104B0BDE8F08100BF84AE0008A8
:10303000C403002048030020C8030020CC03002064
:103040002DE9F04782B082468946314B00934F23E9
:1030500001936D46152420462946ABBE0446002C3C
:1030600040D100272A4B83F84F70009DB8463E465A
:1030700033E0E6B902F048FC204490F90130002B1F
:1030800003DB092C03D1012302E0012300E000232C
:1030900013BB082F27DC222C01D0272C01D10135AE
:1030A000A0461C4B43F827500137012614E0A045E9
:1030B0000ED002F029FC204490F90130002B03DBF4
:1030C000092C03D1012302E0012300E000231BB1FE
:1030D00000232B7098461E46013595F90040002CC0
:1030E000C7D100E000272FB9094B00221A70094A06
:1030F00013600137074B002243F82720CAF80070FD
:10310000C9F80030FFF748FF02B0BDE8F08700BF04
:10311000740300204C03002030B585B0019002916B
:10312000039201AD062420462946ABBE0446204644
:10313000FFF7FCFE05B030BD70B50E461546FFF733
:10314000FDFE30B902F0E4FA092303604FF0FF30CE
:1031500070BD04462A4631460068FFF7DDFFB0F136
:10316000FF3F03D0281A63680344636070BD00BF4B
:10317000F0B583B00C461546FFF7E0FE30B902F01B
:10318000C7FA092303604FF0FF304DE00646022DD9
:1031900006D902F0BDFA162303604FF0FF3043E07A
:1031A000012D13D14368E4180FD502F0B1FA1623AC
:1031B00003607368002B2CDD002C2DDD02F0A8FAD3
:1031C0008B2303604FF0FF302EE00025022D0FD13E
:1031D000336802AF47F8083D0C2528463946ABBE98
:1031E00005462846FFF7A2FEB0F1FF3F17D0044482
:1031F0003368009301946F460A2528463946ABBED2
:1032000005462846FFF792FE00280BDB7460204637
:103210000AE04FF0FF3007E04FF0FF3004E04FF0DE
:10322000FF3001E04FF0FF3003B0F0BD08B5FFF70D
:103230009FFF08BD30B585B001900291039201ADAA
:10324000052420462946ABBE04462046FFF76EFE05
:1032500005B030BD70B50E461446FFF76FFE30B9AD
:1032600002F056FA092303604FF0FF3070BD0546A7
:10327000224631460068FFF7DDFF021E09DBA01A77
:103280006B6803446B60944205D10020FFF744FE55
:1032900070BD4FF0FF3070BD30B583B002AD45F862
:1032A000040D022420462946ABBE04462046FFF703
:1032B0003DFE03B030BD00BF38B50446FFF73EFE0B
:1032C00030B902F025FA092303604FF0FF3038BD12
:1032D0000546013C012C09D8094B9A681B699A42A2
:1032E00004D14FF0FF330360002038BD2868FFF79A
:1032F000D3FF18B94FF0FF322A6038BD38BD00BF88
:10330000CC03002070B50C46FFF718FE30B902F070
:10331000FFF9092303604FF0FF3070BD0646636874
:1033200043F4005363604FF48063E3620C25284646
:103330003146ABBE05462846FFF7F8FDB0F1FF3F2A
:1033400002D02061002070BD4FF0FF3070BD00BF83
:1033500038B505460C463C220021204602F0F0FA22
:1033600021462846FFF7CEFF38BD00BF38B5FFF72E
:10337000E5FD28B902F0CCF909230360002038BD2F
:103380000546092420462946ABBE0446012C07D039
:1033900002F0BEF90446FFF7B5FD2060002038BDFD
:1033A000012038BD08B50A460146024800F004F87D
:1033B000FFF77CFDD0AE00080FB400B583B004ABBE
:1033C00053F8042B01938021064804F0E1F900280A
:1033D00003DD0146034800F04FF803B05DF804EB4D
:1033E00004B070476C04002010B5044603F027FABF
:1033F0000146204600F040F80121024800F03CF868
:1034000010BD00BFC0AF0008F0B585B006460C4641
:10341000174B1B6883B9174B0193042302930323B3
:10342000039301AF012528463946ABBE0546B5F1E9
:10343000FF3F13D00E4B1D600D4B1B68019302968E
:10344000039401AE052528463146ABBE0546B5F1CD
:10345000FF3F06D0A54207D0601B07E04FF0FF30CA
:1034600004E04FF0FF3001E04FF0FF3005B0F0BD59
:10347000EC04002084AE000808B5FFF7C5FF08BDC6
:1034800008B500F001F9044AD2F8883043F470031B
:10349000C2F8883008BD00BF00ED00E0F8B5044672
:1034A0000D4617461E462648FFF786FF2168254829
:1034B000FFF782FF61682448FFF77EFFA168234879
:1034C000FFF77AFFE1682248FFF776FF216921487C
:1034D000FFF772FF61692048FFF76EFFA1691F487F
:1034E000FFF76AFFE1691E48FFF766FF1D48FFF717
:1034F00063FF29461C48FFF75FFF1C4CE16A1C482C
:10350000FFF75AFF216B1B48FFF756FFE16B1A4884
:10351000FFF752FF15F0800F03D039461748FFF729
:103520004BFF15F4004F03D031461548FFF744FF19
:103530001448FFF741FF06991348FFF73DFFF8BD18
:1035400028AF000838AF000848AF000858AF00089F
:1035500068AF000878AF000888AF000898AF00088F
:10356000A8AF0008B8AF0008C4AF000800ED00E045
:10357000D4AF0008E4AF0008F4AF000804B00008BE
:1035800014B0000824B000082CB0000838B58369D6
:103590001B888B426ED1044603684568013B302B83
:1035A0006AD8DFE803F0411D6262592C2F291919EE
:1035B00069191919191932192069192369356969A5
:1035C000696969696969696969696969696969696B
:1035D00069696969691919004FF0FF33036044E0B4
:1035E0000023036041E0002303603EE000232B60E2
:1035F0006B60AB60EB6038E00023036035E0AB68E4
:10360000036032E0002303602FE0002303602CE01E
:10361000BFF34F8F1949CA6802F4E062184B134395
:10362000CB60BFF34F8FFEE71649286803F0FDF823
:1036300070B96B6813B90123236016E0042B02D123
:103640000223236011E0082B02D1032323600CE046
:103650004FF0FF33236008E02B68023B012B02D8B8
:103660000023036001E0AB680360A3690233A36138
:10367000012038BD002038BD002038BD00ED00E03D
:103680000400FA0584AE00080F49D1F8883043F4ED
:103690007003C1F888300D4B1A6842F001021A60BD
:1036A000002098601A6822F0847222F480321A6036
:1036B000074A5A601A6822F480221A60D8604FF0D4
:1036C00000638B60704700BF00ED00E000380240EF
:1036D0001030002410F0AA3F14BF01230023020C75
:1036E000120402B11022134310F0FF2200D008226E
:1036F000134310F0F03200D00422134310F0CC300A
:1037000000D002201843704708B501F0F1FF0020F7
:1037100008BD00BF38B50546052001F0F5FFEDB244
:10372000012219212846FFF7EFFF044603228021DA
:103730002846FFF7E9FF04444EF222028121284681
:10374000FFF7E2FF04444FF4C1424FF48261284680
:10375000FFF7DAFF04444AF280024FF483612846FF
:10376000FFF7D2FF04444AF280024FF484612846F6
:10377000FFF7CAFF04444FF460424FF485612846C6
:10378000FFF7C2FF04444DF61A4240F24341284677
:10379000FFF7BAFF044466224FF496612846FFF70C
:1037A000B3FF04440B224FF48B612846FFF7ACFFB4
:1037B0000444002240F212212846FFF7A5FF0444EA
:1037C000002240F271112846FFF79EFF04440C22AC
:1037D00040F25E312846FFF797FF044400224FF481
:1037E00035712846FFF790FF0444002280212846C7
:1037F000FFF78AFF0444052001F086FF204638BD0C
:103800002DE9F84345F22263994209D04AF6444330
:10381000994205D042F61133994201D0524D00E051
:10382000524D4901002313E091420FD306EB4604A9
:10383000A2004F4C22445268914207D273009F1954
:10384000BA00224492F80880577A0CE00133DBB2C8
:103850001E4603EB4304A200454CA258002AE3D1C4
:1038600010274FF001084FEA8509B9FBF1F11FFA63
:1038700081F9C6B2002240F291113046FFF744FFB1
:10388000044649F400424FF4C9713046FFF73CFF4B
:103890000444002240F293113046FFF735FF044400
:1038A00001224FF4CA713046FFF72EFF0444404610
:1038B000FFF710FF1FFA80F84FEA082242F00802D3
:1038C00092B240F295113046FFF71EFF04444FEAD2
:1038D000881242F0080292B24FF4CB713046FFF7E3
:1038E00013FF04443846FFF7F5FE800082B240F231
:1038F00099113046FFF708FF0444012240F291116C
:103900003046FFF701FF0444062240F604413046EA
:10391000FFF7FAFE044400224FF4D5713046FFF75A
:10392000F3FE044409224FF4D5713046FFF7ECFE54
:103930000444052001F0E8FE0B4B9D4209D140F202
:10394000452240F201113046FFF7DEFE2044BDE87B
:10395000F88348F2452240F201113046FFF7D4FEC9
:103960002044BDE8F88300BF0000770100885801BB
:1039700070B0000870B5002316E08A4212D1C5B2BB
:103980000D4B03EBC40422794FF481712846FFF7F5
:10399000BBFE064662794FF4A0612846FFF7B4FEED
:1039A000304470BD0133DBB21C46034A52F8332069
:1039B000002AE2D1002070BDACB0000808B5FFF7C6
:1039C000D9FF002008BD00BF38B5C5B2022240F2C1
:1039D00004512846FFF798FE0446042240F20251A3
:1039E0002846FFF791FE0444012001F08DFE0022DD
:1039F00040F21A512846FFF787FE0444002240F2A5
:103A000019512846FFF780FE044441F2100240F2AB
:103A100007512846FFF778FE044441F210024FF4A4
:103A2000A1612846FFF770FE0444202240F20651AF
:103A30002846FFF769FE0444202240F2055128463B
:103A4000FFF762FE0444032240F21A512846FFF7B2
:103A50005BFE0444032240F219512846FFF754FE4E
:103A6000204438BD38B5012921D1C5B24FF4407288
:103A700040F219412846FFF747FE04464FF44072D2
:103A800040F21D412846FFF73FFE04444FF44072C8
:103A900040F211412846FFF737FE04444FF44072CC
:103AA00040F215412846FFF72FFE204438BDC5B22D
:103AB0004FF4207240F219412846FFF725FE0446D4
:103AC0004FF4207240F21D412846FFF71DFE0444CA
:103AD0004FF4207240F211412846FFF715FE0444CE
:103AE0004FF4207240F215412846FFF70DFE2044A6
:103AF00038BD00BF08B50021FFF7B4FF08BD00BF07
:103B000008B50121FFF7AEFF08BD00BF08B50021D1
:103B1000FFF7A8FF08BD00BF08B50121FFF7A2FF0E
:103B200008BD00BF70B5064664290BD801EB410300
:103B3000C1EB83132E4C84FB0324DB17C3EB64140B
:103B4000E4B200E06424BF2C26D900213046FFF700
:103B500089FF0446F6B240F2BF2240F219413046D6
:103B6000FFF7D2FD044440F2BF2240F21D4130462F
:103B7000FFF7CAFD044440F2BF2240F21141304633
:103B8000FFF7C2FD044440F2BF2240F21541304627
:103B9000FFF7BAFD204470BD21B901213046FFF77F
:103BA00061FF70BD00213046FFF75CFF0546F6B2AD
:103BB00044F40074224640F219413046FFF7A4FD58
:103BC0000544224640F21D413046FFF79DFD054465
:103BD000224640F211413046FFF796FD0544224649
:103BE00040F215413046FFF78FFD284470BD00BFFD
:103BF0001F85EB5170B505460139032900F2968007
:103C0000DFE801F0022E5A5AC6B220224FF4D261E8
:103C10003046FFF779FD0446802240F2916130463C
:103C2000FFF772FD044421224FF4D3613046FFF7C1
:103C30006BFD0444802240F299613046FFF764FD39
:103C4000044400224FF4D0613046FFF75DFD044488
:103C500000224FF4D1613046FFF756FD044466E080
:103C6000C6B200224FF4D2613046FFF74DFD044644
:103C700000224FF4D3613046FFF746FD0444202272
:103C80004FF4D0613046FFF73FFD0444802240F2FC
:103C900081613046FFF738FD044421224FF4D161A1
:103CA0003046FFF731FD0444802240F289613046FE
:103CB000FFF72AFD04443AE0C6B220224FF4D26155
:103CC0003046FFF721FD0446802240F291613046E4
:103CD000FFF71AFD044421224FF4D3613046FFF769
:103CE00013FD0444802240F299613046FFF70CFD39
:103CF000044420224FF4D0613046FFF705FD044410
:103D0000802240F281613046FFF7FEFC044421220C
:103D10004FF4D1613046FFF7F7FC0444802240F2B3
:103D200089613046FFF7F0FC044400E000240F22D4
:103D30004FF48061E8B2FFF7E7FC204470BD00BF9C
:103D400008B500221146C0B2FFF7DEFC08BD00BF77
:103D500008B501F0CBFC08BD10B5044601F082FCAB
:103D60000021E0B201F0CAFC10BD00BF08B501F0AF
:103D7000C5FCC0B208BD00BF2DE9F8438946154611
:103D80001C46DDF82080099F4FF4E063A8F800305E
:103D90004FF4E1633B80C6B2B8F800103046FFF73D
:103DA000E5FF288039883046FFF7E0FF20802B8828
:103DB000502B0CD14FF408613046FFF7D7FF288015
:103DC000B9F1020F03D04FF40863A8F8003023883C
:103DD000512B0BD140F688013046FFF7C7FF2080FA
:103DE000B9F1020F02D040F688033B80B9F1020F0F
:103DF0001ED02B88602B0CD14FF410613046FFF79A
:103E0000B5FF2880B9F1010F03D04FF41063A8F873
:103E100000302388612B0BD140F608113046FFF7A4
:103E2000A5FF2080B9F1010F02D040F608133B80B6
:103E3000BDE8F88370B584B005460C4602AB01932B
:103E40000DF10A03009303AB0DF10E020021FFF701
:103E500093FF022C33D0032C67D0012C40F09380C9
:103E60001223ADF80E301323ADF80C30EEB20C2255
:103E70004FF440713046FFF747FC04464FF452526E
:103E80004FF446713046FFF73FFC04444FF4207274
:103E900040F21D313046FFF737FC04444FF42072E6
:103EA00040F219313046FFF72FFC044440F2A712CC
:103EB00040F219213046FFF727FC044490E010231C
:103EC000ADF80E301123ADF80C30EEB203224FF4F2
:103ED00040713046FFF718FC04464FF42A524FF465
:103EE00044713046FFF710FC044480224FF44571C2
:103EF0003046FFF709FC04444FF4207240F21131C0
:103F00003046FFF701FC04444FF4207240F21531B3
:103F10003046FFF7F9FB044440F2A7124FF4067154
:103F20003046FFF7F1FB04445AE01423ADF80E309D
:103F30001523ADF80C30EEB230224FF4407130460C
:103F4000FFF7E2FB044642F290224FF448713046FC
:103F5000FFF7DAFB04444FF4207240F2213130467F
:103F6000FFF7D2FB044490224FF449713046FFF72B
:103F7000CBFB04444FF4207240F225313046FFF76A
:103F8000C3FB04442CE01423ADF80E301523ADF828
:103F90000C30EEB230224FF440713046FFF7B4FBE4
:103FA000044642F290224FF448713046FFF7ACFBD2
:103FB00004444FF4207240F221313046FFF7A4FB55
:103FC000044490224FF449713046FFF79DFB0444AE
:103FD0004FF4207240F225313046FFF795FB044440
:103FE000EDB2BDF80E20BDF80A102846FFF78CFB95
:103FF0000444BDF80C20BDF808102846FFF784FBE8
:104000000444802240F201712846FFF77DFB0444FE
:10401000802240F209712846FFF776FB204404B065
:1040200070BD00BF2DE9F047054617469A465FFA76
:1040300081F80E0A01F016FB5FFA85F9002211469D
:104040004846FFF761FB04462846FFF763FB5146ED
:104050002846FFF7D5FB044451462846FFF78AFC63
:10406000044409224FF48B614846FFF74DFB04449A
:1040700001224FF400714846FFF746FB0444D52265
:104080004FF404714846FFF73FFB04442846FFF70E
:104090009BFC41462846FFF7ADFD31462846FFF719
:1040A000C9FE39462846FFF73DFD2046BDE8F087AA
:1040B0002DE9F04184B004460F461646984602ABFF
:1040C00001930DF10A03009303AB0DF10E020121E0
:1040D000FFF752FE07B3E5B2012F01D1012200E044
:1040E00003224FF46C612846FFF70EFB424640F670
:1040F000C1612846FFF708FBBDF80E204FF41061A0
:104100002846FFF701FB802240F601112846FFF701
:10411000FBFA6023ADF80E300EB3E5B2012E01D1EB
:10412000012200E0032240F6C4612846FFF7ECFAC2
:10413000BDF8282040F6C5612846FFF7E5FABDF82E
:104140000C2040F608112846FFF7DEFA802240F6E0
:1041500009112846FFF7D8FA6123ADF80C30E4B214
:10416000BDF80E20BDF80A102046FFF7CDFABDF8C5
:104170000C20BDF808102046FFF7C6FA04B0BDE8D1
:10418000F08100BF2DE9F04F85B005468A46914683
:104190001C46DDF838800F9F109E02AB01930DF195
:1041A0000A03009303AB0DF10E020221FFF7E4FDB9
:1041B000BAF1000F4FD06CB3E8B294F9003003F1BC
:1041C0000C0194F901300C339B0194F902200C325C
:1041D00043EAC12343EA420242F0010292B24FF4A1
:1041E00061618346FFF790FA94F903200C3294F949
:1041F00004300C339B0143EAC222BAF1010F08BF1D
:1042000042F00102B2FA82F2520940F611615846B8
:10421000FFF77AFA5FB90DE004F6126137F814205F
:1042200089B2E8B2FFF770FA0134A4B200E00024CA
:10423000122CF1D9ECB2BDF80E204FF408612046E3
:10424000FFF762FA802240F681012046FFF75CFA10
:104250005023ADF80E30B9F1000F51D0B8F1000F76
:104260002DD0ECB298F9003003F10C0198F901302F
:104270000C339B0198F902200C3243EAC12343EA34
:10428000420242F0010292B240F626612046FFF758
:104290003BFA98F903200C3298F904300C339B0157
:1042A00043EAC222B9F1010F08BF42F00102B2FA9B
:1042B00082F2520940F627612046FFF725FA5EB9DF
:1042C0000DE004F6286136F8142089B2E8B2FFF751
:1042D0001BFA0134A4B200E00024122CF1D9ECB294
:1042E000BDF80C2040F688012046FFF70DFA802229
:1042F00040F689012046FFF707FA5123ADF80C304C
:10430000EDB2BDF80E20BDF80A102846FFF7FCF903
:10431000BDF80C20BDF808102846FFF7F5F905B0E8
:10432000BDE8F08F704700BF30B583B0054600236D
:104330008DF80730FCF736F902AC04F8015D012274
:1043400020212046FCF77CF92D0A8DF80750012228
:1043500024212046FCF774F903B030BD10B582B0BB
:1043600002AC002304F8013DFCF71CF901220F21E7
:104370002046FCF787F99DF8070002B010BD00BF8A
:1043800000B583B0012225210DF10700FCF77AF971
:104390009DF8073063F07F038DF807300122252157
:1043A0000DF10700FCF74CF903B05DF804FB00BF0A
:1043B00010B584B00446012224210DF10700FCF75A
:1043C00061F90122282102A8FCF75CF901222921C8
:1043D0000DF10900FCF756F901222A210DF10A001E
:1043E000FCF750F901222B210DF10B00FCF74AF9E3
:1043F00001222C2103A8FCF745F901222D210DF102
:104400000D00FCF73FF99DF8073003F03803083B37
:10441000182B0ED8DFE803F0190D0D0D0D0D0D0D45
:10442000100D0D0D0D0D0D0D130D0D0D0D0D0D0DB3
:1044300016009FED177A0AE09FED167A07E09FEDD0
:10444000167A04E09FED157A01E09FED157A0022BF
:1044500019E051004B1C04A8034413F9080C04ABE9
:10446000194411F9083C03EB002307EE903AF8EEEB
:10447000E77A67EE277AFDEEE77A17EE903A24F8AE
:1044800012300132D2B2022AE3D904B010BD00BF0B
:104490008FC2753DEC51383E8FC2753E48E13A3FC0
:1044A0008FC2F53D30B583B00446437802788178F9
:1044B00013430B4302AD05F8013D01222321284699
:1044C000FCF7BEF8E278237913438DF80730012218
:1044D00021212846FCF7B4F86279A37913438DF8BB
:1044E0000730012222212846FCF7AAF803B030BD8C
:1044F00030B583B000248DF80740FCF779F88DF8CB
:1045000001408DF8004040238DF802308DF80340C3
:1045100001258DF805508DF806406846FFF7C2FF6B
:1045200002AC032304F8013D2A4652212046FCF741
:1045300087F8C8238DF807302A4654212046FCF717
:104540007FF845238DF807302A4656212046FCF790
:1045500077F8FC238DF807302A465A212046FCF7CD
:104560006FF8A1238DF807302A465B212046FCF71F
:1045700067F88DF807502A465C212046FCF760F862
:104580002A467B212046FCF75BF82A46602120461C
:10459000FCF756F806238DF807302A46612120469D
:1045A000FCF74EF828238DF807302A466221204672
:1045B000FCF746F811238DF807302A466321204680
:1045C000FCF73EF803B030BD704700BF10B582B0B5
:1045D000044600238DF80730FBF7E4FF02A800F83B
:1045E000014D01222021FCF72BF802B010BD00BFC5
:1045F00010B582B002AC002304F8013DFBF7D2FFF6
:1046000001220F212046FCF73DF89DF8070002B07B
:1046100010BD00BF30B583B0054602AC002304F8DE
:10462000013D012221212046FCF72CF89DF807309E
:1046300003F0D0031D438DF80750012221212046AD
:10464000FBF7FEFF03B030BD00B585B004A8002322
:1046500000F8093D01223921FCF714F80622272130
:1046600002A8FCF70FF805B05DF804FB00B583B0B5
:10467000012221210DF10700FCF704F89DF8073015
:1046800043F040038DF80730012221210DF107008E
:10469000FBF7D6FF03B05DF804FB00BF10B586B092
:1046A0000446012220210DF10700FBF7EBFF062253
:1046B000292104A8FBF7E6FF002308E006AA02EB85
:1046C000430212F9081C22F8101C0133DBB2022B42
:1046D000F4D99DF8073013F0200F01D1122100E02A
:1046E000482100230AE006AA02EB430232F9102C0B
:1046F00012FB01F224F813200133DBB2022BF2D9B2
:1047000006B010BD30B583B0054602AC002304F8F6
:10471000013D012238212046FBF7B4FF2B786A784F
:10472000A97813430B438DF8073001223821204626
:10473000FBF786FF03B030BD70B582B000238DF863
:104740000730FBF755FF40238DF8043010238DF818
:10475000053020238DF8063001A8FFF7D3FF3F2551
:1047600002AC04F8015D012222212046FBF768FF1C
:1047700050238DF80730012238212046FBF760FFD7
:10478000AA238DF8073001223B212046FBF758FF72
:104790000A238DF8073001223C212046FBF750FF09
:1047A0004C238DF80730012230212046FBF748FFCB
:1047B00003238DF8073001223D212046FBF740FFFF
:1047C0007F268DF8076001223E212046FBF738FF47
:1047D0008DF80760012229462046FBF731FF02B021
:1047E00070BD00BF30B595B0002401941B4B1A6C0E
:1047F00042F080521A641B6C03F080530193019BBA
:104800000294174B1A6842F440421A601B6803F482
:1048100040430293029B01230393049302250995CD
:104820004FF480030A9308230B934FF4A8730C935F
:104830000D9507230E9303A8FDF702F90F230F939D
:10484000109511944FF4A05312934FF48053139387
:1048500005210FA8FDF722FB15B030BD003802403E
:104860000070004008B5FEF70FFF074AD2F8883005
:1048700043F47003C2F88830FBF752FFFEF700FBE9
:10488000FFF7B0FF08BD00BF00ED00E00B4AD368A2
:1048900043F08073D3600A4B00225A601A6802F01A
:1048A00001021A601A6842F001021A605A6800BFD9
:1048B00000BF00BF5868801A704700BFF0ED00E0ED
:1048C000001000E02DE9F04F2DED028BADF5405DBD
:1048D00085B0FBF725FFFFF7D9FF4BF6803250215B
:1048E00040F2033000F062FD032000F04DFE012095
:1048F00000F024FE4FF48052B049B14800F0B0FD02
:10490000B04B187800F010FEFBF7E0FE00F0D0F995
:104910004FF00008CDF80080AB4F3B6B43F008032D
:104920003B633B6B03F008030093009BA74C4FF4E1
:10493000805AC4F800A001266660A6604FF0030B01
:10494000C4F80CB0A24D21462846FCF743FACDF836
:1049500004803B6B43F008033B633B6B03F00803AD
:104960000193019B4FF40059C4F800906660A66063
:10497000C4F80CB021462846FCF72CFACDF8088084
:104980003B6B43F008033B633B6B03F0080302936C
:10499000029B4FF4804323606660A660C4F80CB0AD
:1049A00021462846FCF716FACDF80C803B6B43F005
:1049B00008033B633B6B03F008030393039B4FF433
:1049C000004727606660A660C4F80CB02146284600
:1049D000FCF700FA324651462846FCF7A5FB324662
:1049E00049462846FCF7A0FB32464FF48041284652
:1049F000FCF79AFB324639462846FCF795FB4246BF
:104A000051462846FCF790FB424649462846FCF7AB
:104A10008BFB42464FF480412846FCF785FB42461B
:104A200039462846FCF780FB324651462846FCF7BB
:104A30007BFB324649462846FCF776FB32464FF46C
:104A400080412846FCF770FB324639462846FCF781
:104A50006BFB9FED608A604B1B78DBB2012B3BD177
:104A600001E0013300E00023B3F5006FF9D300212A
:104A700008460B462AE013F0010F13D00DF58052C3
:104A8000103202EB8002D2ED007A9FED547A67EE8D
:104A9000877AFDEEE77A17EE902A494C24F8132026
:104AA000013012E00DF50052103202EB8102D2ED1E
:104AB000007A9FED4A7A67EE877AFDEEE77A17EE85
:104AC000902A3F4C24F8132001310133B3F5006FD5
:104AD000D1D30022404B1A70002312E0DFED407A60
:104AE00038EE278AF6EE007AB4EEE78AF1EE10FA95
:104AF00001DD9FED388A04AA02EB830282ED008A71
:104B00000133B3F5806FE9D300220EE0930004A9CE
:104B1000194408680DF580511031194408600DF5ED
:104B2000005110310B4418600132B2F5806FEDD3A3
:104B3000294B1B78DBB2022B3DD101E0013301E0B0
:104B40004FF40063B3F5805FF8D3002108464FF4BB
:104B500000632AE013F0010F13D00DF580521032DC
:104B600002EB8002D2ED007A9FED1C7A67EE877A25
:104B7000FDEEE77A17EE902A114C24F8132001304D
:104B800012E00DF50052103202EB8102D2ED007AF4
:104B90009FED127A67EE877AFDEEE77A17EE902A9C
:104BA000074C24F8132001310133B3F5805FD1D3D2
:104BB0000022094B1A7000F081F84CE758050020DC
:104BC0006C250020AC000020003802405825002051
:104BD000000C024000000000F0040020000000472C
:104BE000C92F963B0222014B1A707047F004002037
:104BF0000122014B1A707047F004002008B5012013
:104C0000FCF7ACFA08BD00BF08B5024B986BFCF787
:104C100007F808BDC445002008B5024B586BFBF7E8
:104C2000FFFF08BDC4450020704700BFFEE700BF7E
:104C3000FEE700BFFEE700BFFEE700BF704700BF12
:104C4000704700BF704700BF08B5FBF77FFDFBF75B
:104C500011FE08BD38B500240CE0651C29460F483C
:104C6000FEF7AAFB00230E4A224401210D4800F062
:104C700063F92C46042CF0D900240CE0651C29466D
:104C80000948FEF799FB0023084A22440121054800
:104C900000F052F92C46042CF0D938BD84B100083C
:104CA000F4040020A8B10008ACB10008FC04002006
:104CB00008B501210020FBF72BFC08BD00B583B02F
:104CC0004C4B1B7813F0FF0F00F09180494B1B7881
:104CD000013B0F2B00F28880DFE803F0080F14225D
:104CE00030394249545F6A7376797E834FF480523B
:104CF0004149424800F0B4FB76E0414B187800F09F
:104D000013FC71E0002000F0EBFB4FF4FA5000F0D0
:104D100045FC4FF480523849384800F0A1FB63E06D
:104D2000002000F0DDFB4BF6803000F037FC4FF444
:104D300080523149314800F093FB55E0314B1B88DC
:104D4000314A12880121084600F002FC4CE02D4B4C
:104D50001B882D4A12880221084600F0F9FB43E027
:104D600000231A461946184600F0F2FB3CE0274B98
:104D70000193274B0093274B274A0121084600F057
:104D8000F3FB31E0214B0193214B0093224B214A4D
:104D90000121084600F0E8FB26E01C4B01931C4B68
:104DA00000931E4B1E4A0121084600F0DDFB1BE06C
:104DB00000200190009003460246014600F0D4FB1B
:104DC00012E000F069FB0FE000F078FB0CE000F06F
:104DD00063FB00F073FB07E000F05EFB00F06EFB8E
:104DE00002E0002000F07CFB0022024B1A7003B0AE
:104DF0005DF804FBF1040020580500206C2500201C
:104E0000AC000020D6000020AE000020D80000201A
:104E1000B00000200801002000010020FC04002058
:104E2000F404002001284ED110B582B00020FBF719
:104E3000AFFB012804D1FBF791FC234B186040E045
:104E4000FBF78CFC204B1B68C01A142839D900F0E2
:104E500023FB1E48FEF7B0FA002407E01C4B03EBCF
:104E6000C4035A681B48FEF7A7FA0134184B13F81D
:104E700034100029F2D100230DF10702194616481B
:104E800000F05AF89DF80720144B1A701B78DBB21B
:104E9000022B02D00A2B0CD00DE0114C21781148C6
:104EA000FEF78AFA0023224619460F4800F044F81C
:104EB00001E0FFF7CFFE00F001FBFBF74FFC024BD8
:104EC000186002B010BD704704050020C0B1000892
:104ED000FCB00008D8B10008E4B10008F1040020DB
:104EE000AC000020ECB1000800B2000810B5114B76
:104EF000186842685368013B5360002B04DA41682C
:104F000001F0D2FB044604E042681368591C1160AA
:104F10001C7800F0F9FC2044437813F0040FE6D02D
:104F20002D2CE4D0034B1B685968204602F0FCFB93
:104F300010BD00BF700100200FB410B584B006ABE7
:104F400053F8040B0193FEF737FA019A131D0193EE
:104F5000116802F1080301935468012911D0022954
:104F60001BD011BB01E0FFF7C1FF03A9144801F0FA
:104F7000D7FB0028F7D09DF80C30237015E0FFF721
:104F8000B5FF03A90E4801F0CBFB0028F7D09DF92F
:104F90000C30237009E0FFF7A9FF02A9094801F0CE
:104FA000BFFB0028F7D0029B2360019B1A1D0192D2
:104FB00018680028C7D104B0BDE8104004B070479D
:104FC00088B300088CB300082DE9F04788B00027AB
:104FD0000197274C236B43F002032363236B03F0F9
:104FE00002030193019B4FF0010ACDF810A04FF08E
:104FF0000208CDF8188005974FF4805908AD45F8A0
:10500000149D1C4E29463046FBF7E4FECDF8108077
:105010004FF4005303934FF00508CDF81C80294648
:105020003046FBF7D7FE4FF400430393CDF81C80C6
:1050300029463046FBF7CEFE4FF480430393CDF86C
:105040001C8029463046FBF7C5FE5246494630468D
:10505000FCF76AF80297236C43F480432364236CC3
:1050600003F480430293029B08B0BDE8F08700BFC1
:1050700000380240000402402DE9F04F8DB00024BA
:105080000194694D2B6B43F001032B632B6B03F0F1
:1050900001030193019B02942B6B43F004032B63E8
:1050A0002B6B03F004030293029B03942B6B43F0DE
:1050B00004032B632B6B03F004030393039B0494FF
:1050C0002B6B43F004032B632B6B03F0040304935B
:1050D000049B022308930A93099410270797062636
:1050E0000B9607A95148FBF775FE4FF48069CDF880
:1050F0001C900B96DFF844B107A95846FBF76AFEEF
:105100004FF4805307930B9607A95846FBF762FEAE
:105110004FF40068CDF81C804FF0050ACDF82CA0A4
:1051200007A95846FBF756FE802307930B9607A95D
:105130005846FBF74FFE05942B6C43F400432B6459
:105140002B6C03F400430593059B06942B6B43F4EF
:1051500000132B632B6B03F400130693069BDFF8FD
:10516000E0B0CBF80440CBF80840CBF80C40CBF8CB
:105170001090CBF814804FF40050CBF818004FF487
:105180008071CBF81C104FF40032CBF82020CBF804
:1051900024400323CBF82830CBF82C40CBF8304008
:1051A00005F520551035CBF80050214D4FF0806E9D
:1051B000C5F804E04FF0400EC5F808E0EC60C5F813
:1051C0001090C5F81480A861E9612A6204226A621D
:1051D000AB62EC622C63174B2B605846FBF792FCDA
:1051E0002846FBF78FFC5846FBF77CFB2846FBF76D
:1051F00079FB114BC3F838B0CBF838305D63AB6343
:10520000224631460B20FBF7DBFA22465146384650
:10521000FBF7D6FA0B20FBF715FB3846FBF712FB22
:105220000DB0BDE8F08F00BF003802400000024022
:105230006C45002088600240C44500200008024000
:105240006046002008B51148114B0360DA6922F46A
:105250008062DA6100238360C3600361012202621D
:10526000C3610C4B1B684361082383614FF4407397
:105270004360FBF7A1FF08B9FFF7FEFE0348FCF708
:10528000C3FA0520FBF770FA08BD00BFC445002033
:10529000003C0040B846002008B5FFF795FE0D48D9
:1052A0000D4B0360002383604FF4827242604FF421
:1052B0000062C260036143612822C26103628362AB
:1052C0000722C2624FF4007282614362FDF702F965
:1052D00008BD00BF084600200038004008B503485C
:1052E000FDF7BAF9FFF7D8FF08BD00BF0846002058
:1052F00030B583B0C0F30E43ADF80030ADF8020016
:105300004FF6FF73ADF80430ADF806100C4C0022D8
:105310004FF480512046FBF707FF4FF480530422DF
:1053200069460848FDF7C4F9054601224FF480514B
:105330002046FBF7F9FE0DB1FFF7D0FF03B030BDFB
:10534000000402400846002070B586B0030C6FEAE6
:1053500043436FEA5343ADF81030ADF812004FF6F7
:10536000FF73ADF814300022ADF816200D4C4FF449
:1053700080512046FBF7D8FE4FF48055009504235A
:1053800002AA04A90848FDF743FA06460122294665
:105390002046FBF7C9FE0EB1FFF7A0FFBDF80E00D7
:1053A00006B070BD00040240084600202DE9F0411F
:1053B00084B080460F461446FF25002307E0224AAA
:1053C00052F82320A24200D11D460133DBB2072B45
:1053D000F5D96846FCF7FAFF15F0070F0DD0012349
:1053E00000931A4B53F825300193194B53F825308D
:1053F00002936846FCF70EFF09E0012300934FF487
:1054000081730193032302936846FCF703FF114B5A
:105410001C60114B9B683420984745F20213984258
:1054200004D10D4A0D4B1A60002500E001253DB95D
:105430000A4B1B681E6823463A4641463420B04753
:10544000284604B0BDE8F08190B30008B0B300086E
:10545000D0B30008B8460020100000200805002046
:1054600038B5044615461346B2F5E04F28BF4FF451
:10547000E0430A4601460648FBF73AFF054B1B6826
:10548000DB682A46214634209847002038BD00BFFB
:10549000C44500200805002008B5064B1B681B69A1
:1054A0003420984720B90448FCF736F8002008BD9E
:1054B000012008BD08050020C445002008B5064BA2
:1054C0001B685B693420984720B90448FCF78AF8C8
:1054D000002008BD012008BD08050020C4450020AB
:1054E00010B504460D48FCF7EBF80D4B1B689B69A3
:1054F00021463420984760B9012C0CD10120FBF7DC
:1055000033F900224FF400610648FBF70DFE00203E
:1055100010BD012010BD002010BD00BFC4450020FB
:10552000080500200010024008B5034B1B681B6AE9
:1055300001463420984708BD0805002008B5034BF4
:105540001B685B6A01463420984708BD08050020A7
:1055500000B583B0009313460A4601463420FEF797
:10556000A7FD03B05DF804FB10B584B0079C02945E
:10557000069C0194009313460A4601463420FEF728
:1055800001FE04B010BD00BF08B5034B1B689B6A49
:1055900001463420984708BD0805002030B585B085
:1055A0000446FF25002307E0194A52F82320A242AF
:1055B00000D11D460133DBB2072BF5D96846FCF755
:1055C00005FF15F0070F0DD001230093114B53F881
:1055D00025300193104B53F8253002936846FCF7B1
:1055E00019FE09E0012300934FF481730193032313
:1055F00002936846FCF70EFE084B1C60FFF722FE84
:10560000074B1B68DB6921463420984705B030BD45
:1056100090B30008B0B30008D0B30008B84600202B
:105620000805002008B50268024B9A4201D1FFF735
:10563000D9FA08BD003C004008B50268024B9A4206
:1056400001D1FFF7D5FA08BD003C0040704700BF0C
:1056500008B50268024B9A4201D1FFF7F7FF08BD77
:10566000003C00402DE9F04186B0002700971D4B1B
:105670001A6B42F010021A631B6B03F010030093C5
:10568000009B4FF48068CDF8048001260296022327
:1056900004930397144C01A92046FBF79BFB4FF49E
:1056A0000065019501A92046FBF794FBFFF7F4FD87
:1056B000324641462046FBF737FD3A46294620460A
:1056C000FBF732FD3220FBF74FF8324629462046E1
:1056D000FBF72AFD0520FBF747F8FFF7B3FD06B0FF
:1056E000BDE8F0810038024000100240704700BF62
:1056F00008B508461146FFF7FBFD08BD08B508468A
:10570000FFF722FE08BD00BF08B5FBF72DF808BD66
:10571000014B1868704700BF70010020014900F07C
:10572000C5B800BF81850008002310B5044603609A
:105730004360836081814366C28103614361836109
:10574000194608225C3000F0FBF8054B6362054BFC
:10575000A362054BE362054B2462236310BD00BFC7
:10576000A5670008C7670008FF67000823680008EE
:1057700070B568234D1E5D430E4605F1740100F0BF
:10578000E7F8044640B1002180E842000C30A060F8
:1057900005F1680200F0D4F8204670BD836910B5A9
:1057A000044633BB8364C3640365124B124A1B680F
:1057B0008262984204BF0123836100F01FF8606099
:1057C000204600F01BF8A060204600F017F80022E9
:1057D000E06004216068FFF7A7FF01220921A068AB
:1057E000FFF7A2FF02221221E068FFF79DFF0123CD
:1057F000A36110BD50B400081D570008F8B51C4B3C
:105800001E68B369074613B93046FFF7C7FF48362D
:10581000B4687368013B04D4B4F90C507DB16834AA
:10582000F8E733680BB13668F2E704213846FFF732
:105830009FFF30600028F6D10C233B60F8BD4FF687
:10584000FF73E3810123A38165662560A560656020
:1058500025616561A5610822294604F15C0000F01C
:105860006FF86563A563A564E5642046F8BD00BFD5
:1058700050B400082DE9F041884600F148040026A4
:105880008CB1A5686768013F0BD4AB89012B06D9A1
:10589000B5F90E30013302D02846C04706436835BB
:1058A000F1E72468ECE73046BDE8F0812DE9F843E4
:1058B0008046894600F14804002694B1A5686768CF
:1058C000013F0CD4AB89012B07D9B5F90E30013358
:1058D00003D029464046C84706436835F0E72468A8
:1058E000EBE73046BDE8F883034B1B68186A034BAF
:1058F000002808BF1846704770010020740100207E
:10590000D0F8EC007047000008B5034B1868FFF7AB
:10591000EBFFD0F8EC0008BD7001002082B001B9A7
:1059200001A93AB143B113780B601278101C18BF6B
:10593000012003E0104601E06FF0010002B0704763
:1059400002440346934202D003F8011BFAE7704772
:1059500070B5CD1C25F0030508350C2D38BF0C257E
:10596000002D064601DBA94202D90C23336046E034
:1059700003F0E9F9234B1C681A462146A1B10B68D4
:105980005B1B0ED40B2B03D90B60CC18CD501EE043
:105990008C420DBF63684B686360136018BF0C4690
:1059A00015E00C464968E9E7174C23681BB93046F7
:1059B00000F0A6FE20602946304600F0A1FE431C00
:1059C00018D0C41C24F00304A0420DD12560304639
:1059D00003F0BAF904F10B00231D20F00700C31AED
:1059E0000ED05A42E25070BD211A304600F088FEB7
:1059F0000130EBD10C233360304603F0A5F90020D1
:105A000070BD00BF100500200C0500202DE9FF47E8
:105A100055EC104B0D9FDDF830A0002D0E46914641
:105A20001946B8BF22462B4627F02007BBBF05F119
:105A300000431D4600232D23B8BF1446462F0B708C
:105A400003D0452F03D1013601E0032100E00221FC
:105A500003AB019302AB00933246534645EC104B27
:105A600001F066FF472F804602D119F0010F28D0C0
:105A7000462F08EB060911D198F80030302B0AD1D7
:105A8000002200232046294605F040F818B9C6F147
:105A90000106CAF80060DAF80030994400220023B9
:105AA0002046294605F032F808B9302202E0CDF848
:105AB0000C9006E0039B994503D9591C03911A7079
:105AC000F8E7039B0E9AC8EB03034046136004B04B
:105AD000BDE8F08773B503460029B8BF494203F813
